:100000000C942A000C9446030C9447000C9447006F
:100010000C9447000C9447000C9447000C94470044
:100020000C9447000C9423030C9447000C94470055
:100030000C9447000C9447000C9447000C94470024
:100040000C9447000C9447000C9447000C94470014
:100050000C94470011241FBECFE5D8E0DEBFCDBF12
:1000600010E0A0E6B0E0E8EAF1E102C005900D92F0
:10007000A837B107D9F721E0A8E7B0E001C01D9289
:10008000A03BB207E1F70E9450030C94D2080C94F5
:100090000000CF92DF92EF92FF920F931F93CF93C6
:1000A000DF9300D000D000D0CDB7DEB7009178004C
:1000B0001091790020917A0030917B00082BC72E97
:1000C000D12CE12CF12CCC0CDD1CEE1CFF1CCC0C3B
:1000D000DD1CEE1CFF1CCC0CDD1CEE1CFF1C0C29D7
:1000E0001D292E293F29162BC52ED12CE12CF12CB0
:1000F0000B2EBBE0CC0CDD1CEE1CFF1CBA95D1F71F
:10010000B02D0C291D292E293F29242B892F90E061
:10011000A0E0B0E0072E73E1880F991FAA1FBB1F54
:100120007A95D1F7702DBC01CD01602B712B822BFC
:10013000932B609378007093790080937A0090936A
:100140007B0026960FB6F894DEBF0FBECDBFDF91C1
:10015000CF911F910F91FF90EF90DF90CF90089576
:100160000F931F93CF93DF9300D000D000D0CDB773
:10017000DEB7F82FF7708B019C010F2EFBE0369550
:10018000279517950795FA95D1F7F02DA02FAF7108
:10019000472F47708B019C01689412F8369527957C
:1001A000179507951694D1F7502F5F71E62FE770DA
:1001B0008B019C010F2EF3E1369527951795079536
:1001C000FA95D1F7F02D702F7F702F2F3A2F6E2FC9
:1001D00080E090E026960FB6F894DEBF0FBECDBF4C
:1001E000DF91CF911F910F910895CF93DF93D82F77
:1001F000C62FC49882E00E941E038D2F0E941E030A
:100200008C2F0E941E03C49ADF91CF910895CF9343
:10021000C82FC49883E00E941E038C2F0E941E03E7
:100220008FEF0E941E03C49ACF9108951F93CF931E
:10023000DF93182FD62FC42FC49885E00E941E0389
:10024000812F0E941E038D2F0E941E038C2F0E945F
:100250001E03C49ADF91CF911F910895C4980E9404
:100260001E038FEF0E941E03C49A08950F931F93DD
:10027000CF93DF93883008F083C0C82FC49ABC9A0C
:10028000C798C598C698BF9ABD9ABE980E941A038F
:10029000C49880EC0E941E0389EF90E00197F1F76B
:1002A00000C00000C49AE3ECF9E03197F1F700C018
:1002B0000000C49882E00E941E0388E20E941E0390
:1002C0008C2F90E0EC01CC0FDD1FC80FD91F8E01E1
:1002D000005A1F4FF80180810E941E038AE20E948B
:1002E0001E03F80182810E941E0389E20E941E0300
:1002F000F80181810E941E0363E08BE20E94F500F9
:10030000C49A60E08DE00E94F50060E080E20E9407
:10031000F50060E081E20E94F50060E082E20E9468
:10032000F50060E083E20E94F50060E084E20E9454
:10033000F50060E085E20E94F50060E086E20E9440
:10034000F50060E087E20E94F5008A98929A60E0EA
:100350008CE00E94F50089E20E940701182FFE013F
:10036000EF59FF4FC49160E08FE00E94F5001C132D
:1003700009C08EE00E940701807ED9F781E003C0AA
:1003800080E001C080E0DF91CF911F910F9108952F
:10039000CF92DF92EF92FF920F931F93CF93DF9351
:1003A0007C0180EB0E942E01D82E8074C82ED6FCD2
:1003B00005C0DD200CF04BC084E901C080E9C49881
:1003C0000E941E03C7010E943102F701948180FB45
:1003D00091F994838FEF0E941E03D3FA992790F925
:1003E000F701248190FB20F924838F708583882373
:1003F00089F0E70126969FEF980F092F10E0095F1B
:100400001F4F0E0D1F1D8FEF0E941E038993C017F3
:10041000D107C9F7C49ACC2031F040E061E08CE20A
:100420000E94160105C040E062E08CE20E941601C5
:1004300040E060E28CE20E94160140E060E88CE25D
:100440000E9416018D2D8770CC24C394C80E8C2D6C
:10045000DF91CF911F910F91FF90EF90DF90CF90A0
:1004600008951F93CF93DF93EC018FEF0E941E033B
:10047000182F8FEF0E941E03982F887093FF1EC0C5
:100480008FEF8FB980E2189F900111243B832A835C
:10049000779BFECF8FB189838FEF8FB9292F237080
:1004A0008A81822B9695969596959C71982B9A8326
:1004B000779BFECF8FB1888381E01CC02FEF2FB9CF
:1004C0001B821A82212F30E0220F331F220F331F8D
:1004D000220F331F39832883779BFECF2FB12FEF55
:1004E0002FB99295969597702881922B9883779B38
:1004F000FECF9FB1DF91CF911F910895DF92EF92D0
:10050000FF920F931F93CF93DF937C0180EA0E94A9
:100510002E0182FF08C084FF08C086FD42C0689497
:10052000DD24D2F805C0D12C03C06894DD24D1F8B5
:10053000C4988D2D80640E941E03F7016481669526
:100540006170C7010E94DA02F70115811F70848172
:1005500080FF05C0812F80640E941E0314C0812F7C
:100560000E941E03112379F0E70126961150012FF6
:1005700010E0095F1F4F0E0D1F1D89910E941E0381
:10058000C017D107D1F7C49A0000C498D11002C097
:10059000DD24D3948D2D80680E941E03C49A8D2D76
:1005A00001C080E0DF91CF911F910F91FF90EF90FC
:1005B000DF900895CF93DF93EC01662301F18A81E8
:1005C0009B8196958795929582958F7089279F70CC
:1005D00089278FB99A81892F880F880F880F807E8D
:1005E00088609370892B779BFECF9FB10E941E037A
:1005F00089810E941E0388810E941E0318C0888181
:1006000099819695879596958795969587958FB9B3
:1006100088818295880F807E779BFECF9FB10E9454
:100620001E0380E00E941E0380E00E941E03DF91F3
:10063000CF91089580E58DB91EB808958FB9779B45
:10064000FECF8FB108951F920F920FB60F92112413
:100650008F939F93EF93FF9380917C008F5F8093A4
:100660007C0090913F019F5F90933F01837029F43C
:10067000E3E9F0E082858F5F8287FF91EF919F91A0
:100680008F910F900FBE0F901F9018951F920F9291
:100690000FB60F9211240F900FBE0F901F90189558
:1006A0000E94F2050E94F9058FE39CE90197F1F79A
:1006B00000C000000E9409040E9412040E9430043D
:1006C00084E00E943601E3E3F1E01482CDE7D0E05C
:1006D0008881482F80838981582F818312821382D9
:1006E000158260E070E080E090E00E944900E3E95C
:1006F000F0E06083718382839383A7E9B0E08C91FB
:100700008E7F82608C9388E085831586148681E0D5
:10071000838788818430D9F4EFE7F0E081E0848337
:1007200094E0492F908390917E00592F9183682FF8
:1007300082831382158270E090E00E9449006093EA
:100740008500709386008093870090938800E9E885
:10075000F0E080818E7F8260808388E080938A00D1
:100760009FEF03E910E00F2EFDE7EF2EF0E0FF2EE4
:10077000F02D0F2EF9E3CF2EF1E0DF2EF02D01C08A
:100780009C2FF801C285C91719F0C8010E947E028A
:10079000F7019081943041F40E945406882321F09F
:1007A00085E890E00E94130781EA90E00E94C8016A
:1007B000882331F36091A1007091A2008091A30081
:1007C0009091A4000E94B0002093390130933A0127
:1007D00040933B0150933C0160933D0170933E0177
:1007E000F70180814813CCCFF6019381F701818115
:1007F0009813C6CF433019F0443031F0C1CF81EAAD
:1008000090E00E94FC07BCCF81EA90E00E94710654
:10081000B7CF89B3887F8095869586958695809396
:100820007E00089589B390E0809590958770992710
:100830008330910549F08430910551F0029761F4BD
:1008400082E080937D00089583E080937D00089589
:1008500084E080937D00089587E080937D00089573
:10086000CF93DF9390917D008DEF890F823008F058
:10087000B2C1E0E4F1E081E0808387E0858342E378
:1008800050E05283418321E330E03483238362E0EC
:1008900067838487518740873387228763E0668731
:1008A000838B508B4787328B218B64E0658B828FE3
:1008B000578B468B318F208F65E0648F81A3568FD5
:1008C000458F30A3278F66E063A380A755A344A379
:1008D00037A326A382A787A754A743A736A725A790
:1008E00068E061AB86AB53AB42AB35AB24AB69E0A0
:1008F00060AF80937D0152AF41AF34AF23AF6AE068
:1009000060937F0180938401509381014093800123
:1009100030938301209382016BE060938601809382
:100920008B01509388014093870130938A01209373
:1009300089016CE060938D018093920150938F0147
:1009400040938E0130939101209390016DE060936C
:1009500094018093990150939601409395013093AF
:100960009801209397016EE060939B018093A00112
:1009700050939D0140939C0130939F0120939E01D1
:100980006FE06093A2018093A7015093A40140936C
:10099000A3013093A6012093A50160E16093A90112
:1009A0008093AE015093AB014093AA013093AD0107
:1009B0002093AC019330C9F4E5E4F1E045EB51E05C
:1009C00021E030E0DF0112970D90BC91A02DC9010C
:1009D000008002C0880F991F0A94E2F79C91892B2E
:1009E0008C933796E417F50769F780917D00833083
:1009F00009F4F1C08430C9F4E5E4F1E049E951E0DB
:100A000021E030E0DF0112970D90BC91A02DC901CB
:100A1000008002C0880F991F0A94E2F79C91892BED
:100A20008C933796E417F50769F7EFEAF0E081E079
:100A30008083178245E350E05283418383E390E053
:100A40009483838324E330E03683258362E06387E5
:100A5000128A5587448797878687318B208B63E07E
:100A6000668B158E508F478B928F818F348F238F9B
:100A700064E061A310A653A342A395A384A337A364
:100A800026A365E064A713AA56A745A790AB87A73E
:100A900032AB21AB66E067AB1092ED0051AF40AFD7
:100AA00093AF82AF35AF24AF67E06093F10010924F
:100AB000F8005093F3004093F2009093F500809378
:100AC000F4003093F7002093F60028E02093FC0018
:100AD0001092030142E350E05093FE004093FD006A
:100AE000909300018093FF0021E330E030930201F6
:100AF0002093010169E06093070110920E01509369
:100B000009014093080190930B0180930A013093EF
:100B10000D0120930C016AE06093120110921901FB
:100B20005093140140931301909316018093150183
:100B300030931801209317016BE060931D01109210
:100B4000240150931F0140931E0190932101809333
:100B5000200130932301209322016CE0609328014F
:100B600010922F0150932A014093290190932C0158
:100B700080932B0130932E0120932D0180917D00D5
:100B8000843049F5E6EBF0E0A0EBB0E04AE351E059
:100B900021E030E01496CD91DC911597C9010080D9
:100BA00002C0880F991F0A94E2F7809598818923E3
:100BB0008883CD91DC911197C901008002C0880F14
:100BC000991F0A94E2F79881892B88833B961B969C
:100BD000E417F507F9F68A981ABA8FEF8BBBDF9105
:100BE000CF9108958EB583608EBD89B7846089BF2B
:100BF000089580E48BBF82E085BF78940895FC015E
:100C00008681813071F4A181B28181E090E005801C
:100C100002C0880F991F0A94E2F79C91892B8C934C
:100C20000895A181B28121E030E0C901058002C0B0
:100C3000880F991F0A94E2F780959C9189238C93E1
:100C40000895FC0181E090E0078002C0880F991FA1
:100C50000A94E2F7A381B4819C91892341F081E059
:100C60009085913009F080E0108611860895808586
:100C7000811109C0118681E0808780913F018E5FDC
:100C8000828781E001C080E0928520913F0192132C
:100C90000AC09E5F92878185873020F48F5F8187AD
:100CA00081E0089581E00895EF92FF921F93CF9322
:100CB000DF93CFEAD0E00F2EF3E3EF2EF1E0FF2E2B
:100CC000F02D10E0CE010E942106182B2B96CE1598
:100CD000DF05C1F7812FDF91CF911F91FF90EF903A
:100CE0000895CF93DF93EC018D85882324F481E070
:100CF0008093460102C01092460180E491E00E9478
:100D0000FF058D8586FF04C081E080934D0102C000
:100D100010924D0187E491E00E94FF058D8585FFCB
:100D200004C081E08093540102C0109254018EE40B
:100D300091E00E94FF058D8584FF04C081E08093CF
:100D40005B0102C010925B0185E591E00E94FF0506
:100D50008D8583FF04C081E08093620102C0109200
:100D600062018CE591E00E94FF058D8582FF04C041
:100D700081E08093690102C01092690183E691E0ED
:100D80000E94FF058D8581FF04C081E08093700182
:100D900002C0109270018AE691E00E94FF058D85E5
:100DA00080FF04C081E08093770102C01092770138
:100DB00081E791E00E94FF058C85882324F481E07F
:100DC00080937E0102C010927E0188E791E00E942C
:100DD000FF058C8586FF04C081E08093850102C0F9
:100DE000109285018FE791E00E94FF058C8585FFB9
:100DF00004C081E080938C0102C010928C0186E8CF
:100E000091E00E94FF058C8584FF04C081E08093FF
:100E1000930102C0109293018DE891E00E94FF05BA
:100E2000DF91CF910895FC01DC0116960D961D927D
:100E3000A817B907E1F7AFEAB0E018968C911897B8
:100E400040E8849F9001112453969C91539740E46D
:100E5000949FC0011124822B20910401822B5E9665
:100E60003C915E9790E2399FA0011124282F242BFA
:100E700099963C91999740E1349FC0011124822BAF
:100E8000D4969C91D497990F990F990F292F282BBD
:100E90008091EE00880F880F982F922B8091F90097
:100EA000880F892B858780911A0190E4899F900192
:100EB000112490910F0140E8949FC0011124822BCE
:100EC0009091250140E2949F90011124282B90914C
:100ED000300130E1939FC0011124822B19969C911F
:100EE0001997990F892B848754969C9154979695BE
:100EF0009695892B848754968C91549740E4849FCF
:100F0000C00111249385892B83875F969C915F97FD
:100F1000990F990F990F892B83879A969C919A978D
:100F2000892B8387D5968C9120E2829FC001112462
:100F30009285892B82879091EF00990F990F892BC9
:100F40008287AAEFB0E09C919695892B82878C913D
:100F500030E8839FC00111242185282B218790919F
:100F6000050140E1949FC0011124822B818790915B
:100F70001001990F892B8187ABE1B1E09C91969587
:100F80009695892B81878C9120E4829FC001112442
:100F90009085892B808790912601990F990F990F41
:100FA000892B808790913101892B8087CF010E9406
:100FB0007E020895FC018681813071F4A181B281A5
:100FC00081E090E0058002C0880F991F0A94E2F743
:100FD0009C91892B8C930895A181B28121E030E00E
:100FE000C901058002C0880F991F0A94E2F7809515
:100FF0009C9189238C930895CF93DF93EC018D8589
:10100000882324F481E08093460102C010924601B7
:1010100080E491E00E94DA078D8586FF04C081E0BC
:1010200080934D0102C010924D0187E491E00E942F
:10103000DA078D8585FF04C081E08093540102C0EA
:10104000109254018EE491E00E94DA078D8584FFAE
:1010500004C081E080935B0102C010925B0185E5D2
:1010600091E00E94DA078D8583FF04C081E08093C0
:10107000620102C0109262018CE591E00E94DA07E1
:101080008D8582FF04C081E08093690102C01092C7
:10109000690183E691E00E94DA078D8581FF04C033
:1010A00081E08093700102C0109270018AE691E0A5
:1010B0000E94DA078D8580FF04C081E0809377016C
:1010C00002C01092770181E791E00E94DA078C85D7
:1010D000882324F481E080937E0102C010927E0177
:1010E00088E791E00E94DA078C8586FF04C081E0E2
:1010F0008093850102C0109285018FE791E00E94E4
:10110000DA078C8585FF04C081E080938C0102C0E2
:1011100010928C0186E891E00E94DA078C8584FFAA
:1011200004C081E08093930102C0109293018DE886
:1011300091E00E94DA078C8583FF04C081E08093F0
:101140009A0102C010929A0184E991E00E94DA07A4
:101150008C8582FF04C081E08093A10102C01092BF
:10116000A1018BE991E00E94DA078C8581FF04C020
:1011700081E08093A80102C01092A80182EA91E068
:101180000E94DA078C8580FF04C081E08093AF0164
:1011900002C01092AF0189EA91E00E94DA07DF9164
:0811A000CF910895F894FFCFF0
:1011A80004B6E704B6D304B6C704B6C30290030373
:0811B800AC8103AC8002900041
:00000001FF
