:100000000C945D000C94C4030C947A000C947A0058
:100010000C947A000C947A000C947A000C947A0078
:100020000C947A000C947A000C947A000C947A0068
:100030000C947A000C947A000C9401030C94340311
:100040000C947A000C947A000C947A000C947A0048
:100050000C947A000C947A000C947A000C947A0038
:100060000C947A000C947A000C947A000C947A0028
:100070000C947A000C947A000C947A000C947A0018
:100080000C947A000C947A000C947A00FFC0000063
:10009000FFC00000FFC0000000380084FFC0000067
:1000A000FFC00000FFC0000000000084FFC000008F
:1000B000FFC0000002900703000011241FBECFEF15
:1000C000D0E1DEBFCDBF11E0A0E0B1E0EEEFFBE19B
:1000D00002C005900D92A030B107D9F722E0A0E050
:1000E000B1E001C01D92A538B207E1F70E94CE032E
:1000F0000C94FD0D0C940000CF92DF92EF92FF92D2
:100100000F931F93CF93DF9300D000D000D0CDB7D3
:10011000DEB7072F10E020E030E0000F111F221F94
:10012000331F000F111F221F331F000F111F221F2B
:10013000331F162B68017901C82A052F10E020E033
:1001400030E00F2EFBE0000F111F221F331FFA9526
:10015000D1F7F02D0C291D292E293F29242B892F79
:1001600090E0A0E0B0E0072E73E1880F991FAA1F6E
:10017000BB1F7A95D1F7702DBC01CD01602B712B7F
:10018000822B932B26960FB6F894DEBF0FBECDBF01
:10019000DF91CF911F910F91FF90EF90DF90CF9063
:1001A00008950F931F93CF93DF9300D000D000D01A
:1001B000CDB7DEB7F82FF7708B019C010F2EFBE057
:1001C0003695279517950795FA95D1F7F02DA02F1D
:1001D000AF71472F47708B019C01689412F83695D8
:1001E0002795179507951694D1F7502F5F71E62F35
:1001F000E7708B019C010F2EF3E13695279517953B
:100200000795FA95D1F7F02D702F7F702F2F3A2F89
:100210006E2F80E090E026960FB6F894DEBF0FBEFA
:10022000CDBFDF91CF911F910F910895CF93DF93B1
:10023000D82FC62FC09882E00E94FC028D2F0E940A
:10024000FC028C2F0E94FC02C09ADF91CF9108958E
:10025000CF93C82FC09883E00E94FC028C2F0E948D
:10026000FC028FEF0E94FC02C09ACF9108951F9369
:10027000CF93DF93182FD62FC42FC09885E00E940C
:10028000FC02812F0E94FC028D2F0E94FC028C2F09
:100290000E94FC02C09ADF91CF911F910895C098EF
:1002A0000E94FC028FEF0E94FC02C09A08950F93F7
:1002B0001F93CF93DF93883008F048C0C09AB89A54
:1002C000C198C298C398B99ABA9ABB980E94F7028B
:1002D000C09880EC0E94FC0289EF90E00197F1F752
:1002E00000C00000C09A91E29A95F1F70000C09812
:1002F00082E00E94FC0280E00E94FC02CCE8D0E098
:1003000009EB10E0FE0184910E94FC022196C017C7
:10031000D107C1F7C09A60E680E60E94160160E648
:1003200080E70E9416018A98929A89E20E94280129
:10033000C82F64E08FE00E941601C03949F48EE0B6
:100340000E942801807ED9F781E003C080E001C0CF
:1003500080E0DF91CF911F910F910895CF92DF92AE
:10036000EF92FF920F931F93CF93DF937C0180EB6B
:100370000E944F01D82E8074C82ED6FC05C0DD2007
:100380000CF040C084E901C080E9C0980E94FC02E2
:10039000C7010E940C02F701948180FB91F99483BC
:1003A0008FEF0E94FC02D3FA992790F9F70124817C
:1003B00090FB20F924838F708583882381F0E701E7
:1003C00026968150082F10E0095F1F4F0E0D1F1D4C
:1003D0008FEF0E94FC028993C017D107C9F7C09A1A
:1003E000CC2031F040E061E08CE20E94370105C092
:1003F00040E062E08CE20E9437018D2D8770CC24B2
:10040000C394C80E8C2DDF91CF911F910F91FF9057
:10041000EF90DF90CF9008951F93CF93DF93EC017F
:100420008FEF0E94FC02182F8FEF0E94FC02482FD2
:10043000487083FF1EC09FEF9FB990E2199F900103
:1004400011243B832A83779BFECF9FB199839FEF33
:100450009FB9282F23709A81922B86958695869531
:100460008C71892B8A83779BFECF8FB1888341E083
:100470001DC09FEF9FB91B821A82212F30E0220FEF
:10048000331F220F331F220F331F39832883779B9B
:10049000FECF9FB19FEF9FB9982F92959695977039
:1004A0008881982B9883779BFECF8FB1842FDF9123
:1004B000CF911F910895DF92EF92FF920F931F93B8
:1004C000CF93DF937C0180EA0E944F0182FF08C036
:1004D00084FF08C086FD42C06894DD24D2F805C0C0
:1004E000D12C03C06894DD24D1F8C0988D2D806490
:1004F0000E94FC02F701648166956170C7010E9449
:10050000B702F70115811F70848180FF05C0812F1C
:1005100080640E94FC0214C0812F0E94FC021123FF
:1005200079F0E70126961150012F10E0095F1F4F67
:100530000E0D1F1D89910E94FC02C017D107D1F733
:10054000C09A0000C098D11002C0DD24D3948D2D34
:1005500080680E94FC02C09A8D2D01C080E0DF916E
:10056000CF911F910F91FF90EF90DF900895CF935F
:10057000DF93EC01662301F18A819B819695879533
:10058000929582958F7089279F7089278FB99A815C
:10059000892F880F880F880F807E93708860892B41
:1005A000779BFECF9FB10E94FC0289810E94FC02D2
:1005B00088810E94FC0218C0888199819695879550
:1005C00096958795969587958FB988818295880F9E
:1005D000807E779BFECF9FB10E94FC0280E00E944C
:1005E000FC0280E00E94FC02DF91CF91089581E53A
:1005F0008DB981E08EB908958FB9779BFECF8FB109
:1006000008951F920F920FB60F9211248F939F930C
:10061000EF93FF93809102018F5F8093020190918D
:10062000EE019F5F9093EE01837029F4ECE1F1E01D
:1006300082858F5F8287809107018F3161F0809181
:100640000101811105C0C49A81E08093010103C0BA
:10065000C49810920101FF91EF919F918F910F909B
:100660000FBE0F901F9018951F920F920FB60F920A
:1006700011242F933F938F939F93EF93FF9312BE79
:1006800080910001882309F46EC09DEC899F912D13
:10069000112496959695292F220F220F920F8913D8
:1006A00005C0EFEEF1E090819F5F90839DEC899F04
:1006B000912D1124969596959695990F292F220F95
:1006C000220F920F891305C0EFEEF1E091819F5F39
:1006D00091839DEC899F912D112492959F70990F84
:1006E000990F292F220F220F920F891305C0EFEEC9
:1006F000F1E092819F5F928399E2899F912D11246D
:10070000969596959695382F22E3929F301911244D
:10071000311105C0EFEEF1E093819F5F938399E281
:10072000899F912D112492959F70382F24E6929FD6
:1007300030191124311105C0EFEEF1E094819F5F73
:10074000948391E0883C08F490E0382F28E3929F4E
:10075000300D1124311105C0EFEEF1E095819F5F5E
:100760009583883C20F48F5F8093000102C0109233
:100770000001FF91EF919F918F913F912F910F90E9
:100780000FBE0F901F9018951F920F920FB60F92E9
:1007900011240F900FBE0F901F9018950E94D6083D
:1007A0000E94E2080E94FC040E9458050E9409066B
:1007B0002FEF81EE94E0215080409040E1F700C09F
:1007C000000084E00E9457010E94E408E2EEF1E09C
:1007D0001482C6E0D1E08881482F80838981582F18
:1007E000818312821382158260E070E080E090E0E5
:1007F0000E947C00ECE1F1E060837183828393834B
:10080000A0E2B1E08C918E7F82608C9388E085833A
:100810001586148685E083878881E8E0F1E080838F
:100820009981918391E09283138215828430B9F487
:1008300081E080930C014091080150910901609181
:100840000A0170910B0190910D010E947C00609350
:100850000E0170930F01809310019093110182E0BB
:1008600080930C01409108015091090160910A01A7
:1008700070910B0190910D010E947C00EAE2F1E081
:100880006083718382839383AEE2B1E08C918E7F2B
:1008900082608C9398E09583E2E1F1E080818E7F25
:1008A00082608083909313010FEF99249A948FEFC5
:1008B0000F2EFCE1EF2EF1E0FF2EF02DC6E0D1E08F
:1008C0000F2EF8EEAF2EF1E0BF2EF02D0F2EFFEE23
:1008D000CF2EF1E0DF2EF02D01C0812FA895F7017A
:1008E0001285811719F0C7010E945B02888184304C
:1008F000E9F40E945409882331F08EE091E00E94CF
:10090000060B792C08C0F6017480971421F08EE054
:1009100091E00E94060BF6018480081509F466C078
:100920008AE291E00E94130A082D972C8881833077
:1009300051F4F6018480081509F453C08AE291E06D
:100940000E94C50C082D89818F3171F48881843013
:1009500029F40E949A050E94BC05BFCF833009F09C
:10096000BCCF0E94BC05B9CF88E391E00E94AE01E4
:10097000882309F4B2CF60913801709139018091D8
:100980003A0190913B010E94D1002093E8013093FD
:10099000E9014093EA015093EB016093EC017093FD
:1009A000ED018881481399CFF501938189819813CE
:1009B00094CF80913E018F3F19F40C94007C8DCF31
:1009C000433019F0443031F088CF88E391E00E9441
:1009D000EF0B83CF88E391E00E9471097ECF082D51
:1009E000972C89818F3109F0BFCFBBCF88818330AD
:1009F000B1F3972C082DA7CFE4E6F0E08081877F44
:100A0000808380818F7E8083BD98BE98BF98E5E605
:100A1000F0E080818861808388B3806E88BB83EC3E
:100A200099E00197F1F700C00000A3E6B0E0EC9177
:100A30005C9136B396B3F0E0E095F095E870FF274F
:100A4000F595E795F595E795652F70E060957095BC
:100A5000629561702E2F260F432F50E040955095E0
:100A60004072552755954795822F840F292F30E0E6
:100A70002095309520743327359527953595279502
:100A800035952795280F96B3892F90E080959095FE
:100A900080789927959587959595879595958795CC
:100AA0009595879595958795820F80930701089571
:100AB000E1E6F0E080818D7F808380818E7F80837E
:100AC000D098E2E6F0E0808183608083D89A83EC5E
:100AD00099E00197F1F700C0000080B18095837024
:100AE000C89B02C090E001C094E0892B833039F0AC
:100AF000843049F0823059F480930601089583E0F0
:100B000080930601089584E080930601089587E0AC
:100B10008093060108950E945409EEE4F1E02AEE64
:100B200031E080E0908191118F5F3D96E217F307ED
:100B3000C9F708959091F10180910501981771F01E
:100B40000E948B05813051F48091F1018093050161
:100B500080FF02C0C49A0895C49808950E948B052E
:100B6000823048F08091EF018093050180FF02C040
:100B7000C49A0895C49808959091F2018091040157
:100B8000981709F445C00E948B05811141C08091DE
:100B9000F2018093040180FF3AC0C49A809103015E
:100BA000803160F5882389F090E001979C01220F45
:100BB000331F220F331F220F331F820F931F8B50BF
:100BC0009E4FFC0110860E94CD0B8091030190E0A6
:100BD0009C01220F331F220F331F220F331F820F5E
:100BE000931F8B509E4F21E0FC0120870E94CD0B6C
:100BF000809103018F5F8093030108951092030198
:100C0000109284028CE792E00E94CD0B0895C49864
:100C10000895BF92CF92DF92EF92FF920F931F93AE
:100C2000CF93DF9380910601833021F0843009F463
:100C300009C1B1C2E5EFF1E061E06083A3E0A78301
:100C400045E350E05283418323E330E03483238340
:100C500084E390E09683858372E07187708B53877D
:100C600042873587248797878687A28B618F548B2D
:100C7000438B368B258B908F878BB4E0B38F12A27A
:100C8000558F448F378F268F91A380A3C5E0C4A3CF
:100C900063A745E650E056A345A323E630E030A71E
:100CA00027A384E690E092A781A7D6E0D5A714AA4F
:100CB00057A746A731AB20AB93AB82AB87E086AB9F
:100CC00065AF02E310E010AF07AB40E350E052AF76
:100CD00041AF21E330E034AF23AF98E097AF1092FB
:100CE0003B02109336020093350250933802409332
:100CF000370230933A022093390299E090933D02F3
:100D00008093440243E250E050933F0240933E02FE
:100D100021E230E0309341022093400282E290E0F1
:100D20009093430280934202EAE0E0934602D0931C
:100D30004D02509348024093470230934A02209359
:100D4000490290934C0280934B02EBE0E0934F02F8
:100D5000C093560250935102409350023093530275
:100D6000209352029093550280935402ECE0E0935A
:100D70005802B0935F0250935A0240935902309345
:100D80005C0220935B0290935E0280935D02EDE033
:100D9000E0936102A0936802509363024093620261
:100DA00030936502209364029093670280936602F9
:100DB000EEE0E0936A027093710250936C024093EC
:100DC0006B0230936E0220936D02909370028093B9
:100DD0006F027FE07093730260937A025093750202
:100DE00040937402309377022093760290937902B5
:100DF0008093780260E160937C02109283025093AA
:100E00007E0240937D023093800220937F02909374
:100E1000820280938102EAEFF1E04AE852E021E0A9
:100E200030E0A081B181C901028002C0880F991F02
:100E30000A94E2F79C91892B8C933996E417F50775
:100E400081F7A9C1E5EFF1E061E06083178242E339
:100E500050E05283418320E330E03483238381E3F5
:100E600090E096838583D2E0D187608B5387428759
:100E70003587248797878687C3E0C28B118E45E626
:100E800050E0548B438B23E630E0368B258B84E691
:100E900090E0908F878BB4E0B38F62A3558F448F1F
:100EA000378F268F91A380A3A5E0A4A313A645E3C3
:100EB00050E056A345A323E330E030A727A384E303
:100EC00090E092A781A776E075A764AB57A746A7E5
:100ED00031AB20AB93AB82AB67E066ABD5AF50AF25
:100EE00047AB32AF21AF94AF83AFD8E0D7AFC09359
:100EF0003B025093360240933502309338022093E0
:100F0000370290933A028093390289E080933D0240
:100F1000B093440243E250E050933F0240933E02BC
:100F200021E230E0309341022093400282E290E0DF
:100F30009093430280934202EAE0E0934602A0933A
:100F40004D02509348024093470230934A02209347
:100F5000490290934C0280934B02EBE0E0934F02E6
:100F600070935602509351024093500230935302B3
:100F70002093520290935502809354027CE0709328
:100F8000580260935F0250935A0240935902309383
:100F90005C0220935B0290935E0280935D02EAEF15
:100FA000F1E046E652E021E030E0A081B181C901E4
:100FB000028002C0880F991F0A94E2F79C91892B46
:100FC0008C933996E417F50781F7E6E4F1E0BB244A
:100FD000B394B0820F2EF7E0DF2EF02DD7824BE3D3
:100FE00050E05283418329E330E0348323838AE352
:100FF00090E0968385836894EE24E1F8E586E48AA0
:1010000065E670E07787668763E670E0718B608BDA
:1010100064E670E0738B628B0F2EF3E0CF2EF02D21
:10102000C28ED1A2C5E3D0E0D48FC38FA3E3B0E0DA
:10103000B68FA58F64E370E070A3678F6894FF2478
:10104000F2F8F7A216E016A7D1A7C0A7B3A7A2A7E8
:1010500075A764A705E004AB03AFD6ABC5ABB0AFD3
:10106000A7AB72AF61AF10938701F0928E01D0935E
:101070008901C0938801B0938B01A0938A0170937A
:101080008D0160938C01D0929401B0929B0150939A
:101090009601409395013093980120939701909386
:1010A0009A018093990168E06093A101E092A80100
:1010B0005093A3014093A2013093A5012093A40172
:1010C0009093A7018093A60169E06093AE01C0925E
:1010D000B5015093B0014093AF013093B20120931A
:1010E000B1019093B4018093B3016AE06093BB01B6
:1010F000F092C2015093BD014093BC013093BF01F7
:101100002093BE019093C1018093C0016BE0609376
:10111000C8010093CF015093CA014093C901309395
:10112000CC012093CB019093CE018093CD016CE054
:101130006093D5011093DC015093D7014093D60101
:101140003093D9012093D8019093DB018093DA0189
:10115000E7E4F1E043EE51E021E030E0A481B58125
:10116000C901068002C0880F991F0A94E2F7809592
:101170009C9189238C93A081B181C901068002C012
:10118000880F991F0A94E2F79C91892B8C933D96C6
:10119000E417F50719F7BC9ADF91CF911F910F91D2
:1011A000FF90EF90DF90CF90BF90089583E08EBDC9
:1011B00083B7876083BF8CE981BF12BE87B7866023
:1011C00087BF0895789408958EE081BD0895FC014D
:1011D0008085813071F4A181B28181E090E0078047
:1011E00002C0880F991F0A94E2F79C91892B8C9377
:1011F0000895A181B28121E030E0C901078002C0D9
:10120000880F991F0A94E2F780959C9189238C930B
:101210000895FC01A381B4818C91282F30E081E0F6
:1012200090E0078002C0880F991F0A94E2F782239A
:101230009323892B11F0148614C08485811106C074
:1012400081E084878091F00183870BC09385809132
:10125000F001981719F080858823E1F080858130AE
:1012600041F081E09085913009F080E01086118690
:10127000089580E092852091EE01921314C09E5F44
:1012800092878185873020F48F5F818781E0089580
:1012900081E00895118681E080878091EE018E5F64
:1012A000828781E0E7CF0895EF92FF921F93CF935B
:1012B000DF93C6E4D1E00F2EF2EEEF2EF1E0FF2E29
:1012C000F02D10E0CE010E940909182B2D96CE15A5
:1012D000DF05C1F7812FDF91CF911F91FF90EF9034
:1012E0000895CF93DF93EC018D85882324F481E06A
:1012F0008093FD0102C01092FD0185EF91E00E94F4
:10130000E7088D8586FF04C081E08093060202C055
:10131000109206028EEF91E00E94E7088D8585FF0E
:1013200004C081E080930F0202C010920F0287E098
:1013300092E00E94E7088D8584FF04C081E08093DD
:10134000180202C01092180280E192E00E94E708A1
:101350008D8583FF04C081E08093210202C010923A
:10136000210289E192E00E94E7088D8582FF04C096
:1013700081E080932A0202C010922A0282E292E067
:101380000E94E7088D8581FF04C081E080933302CD
:1013900002C0109233028BE292E00E94E7088D8532
:1013A00080FF04C081E080933C0202C010923C02A6
:1013B00084E392E00E94E7088C85882324F481E08E
:1013C0008093450202C0109245028DE392E00E9494
:1013D000E7088C8586FF04C081E080934E0202C03E
:1013E00010924E0286E492E00E94E7088C8585FF09
:1013F00004C081E08093570202C0109257028FE42C
:1014000092E00E94E7088C8584FF04C081E080930D
:10141000600202C01092600288E592E00E94E70834
:10142000DF91CF910895CF93DF93FC01138614864B
:101430001586A5EFB1E01396CD91DC9114978881C4
:1014400090E017960C9002C0959587950A94E2F764
:1014500080FF02C080E88587A5EFB1E01C96CD91A2
:10146000DC911D97888190E050960C9002C0959574
:1014700087950A94E2F780FF03C08585806485879D
:10148000A5EFB1E05596CD91DC915697888190E01B
:1014900059960C9002C0959587950A94E2F780FFC3
:1014A00003C0858580628587A5EFB1E05E96CD910A
:1014B000DC915F97888190E092960C9002C09595A0
:1014C00087950A94E2F780FF03C085858061858750
:1014D000A5EFB1E09796CD91DC919897888190E047
:1014E0009B960C9002C0959587950A94E2F780FF31
:1014F00003C0858588608587A5EFB1E0D096CD9142
:10150000DC91D197888190E0D4960C9002C095959B
:1015100087950A94E2F780FF03C0858584608587FC
:10152000A5EFB1E0D996CD91DC91DA97888190E072
:10153000DD960C9002C0959587950A94E2F780FF9E
:1015400003C0858582608587A0913702B0913802FB
:101550008C9190E000903B0202C0959587950A948B
:10156000E2F780FF03C0858581608587A0914002F6
:10157000B09141028C9190E00090440202C0959598
:1015800087950A94E2F780FF02C080E88487A091E3
:101590004902B0914A028C9190E000904D0202C045
:1015A000959587950A94E2F780FF03C0848580644F
:1015B0008487A0915202B09153028C9190E00090E8
:1015C000560202C0959587950A94E2F780FF03C002
:1015D000848580628487A0915B02B0915C028C91CB
:1015E00090E000905F0202C0959587950A94E2F71B
:1015F00080FF03C08485806184878485807F8487A1
:10160000CF010E945B02DF91CF910895FC01DC01C4
:1016100016960D961D92A817B907E1F7A6E4B1E05A
:1016200018968C91189740E8849F90011124559644
:101630009C91559740E4949FC0011124822B2091E6
:10164000A901822B92963C91929790E2399FA0013A
:101650001124282F242B9F963C919F9740E1349F83
:10166000C0011124822BDC969C91DC97990F990F75
:10167000990F292F282B80918F01880F880F982F81
:10168000922B80919C01880F892B85878091B601D0
:1016900090E8899F900111249091C30140E4949FA8
:1016A000C0011124822B9091D00140E2949F9001BF
:1016B0001124282B9091DD0130E1939FC00111246A
:1016C000822B19969C911997990F892B848756968E
:1016D0009C91569796959695892B848756968C91D2
:1016E000569740E4849FC00111249385892B8387FA
:1016F00093969C919397990F990F990F892B8387B4
:10170000D0969C91D097892B8387DD968C9120E28F
:10171000829FC00111249285892B8287909190012C
:10172000990F990F892B8287ADE9B1E09C9196952D
:10173000892B82878C9130E8839FC00111242185F9
:10174000282B21879091AA0140E1949FC001112488
:10175000822B81879091B701990F892B8187A4EC07
:10176000B1E09C9196959695892B81878C9120E488
:10177000829FC00111249085892B80879091D1018F
:10178000990F990F990F892B80879091DE01892BF2
:101790008087CF010E945B020895FC018085813023
:1017A00071F4A181B28181E090E0078002C0880FCE
:1017B000991F0A94E2F79C91892B8C930895A1813B
:1017C000B28121E030E0C901078002C0880F991F73
:1017D0000A94E2F780959C9189238C930895CF9386
:1017E000DF93EC018D85882324F481E08093FD0153
:1017F00002C01092FD0185EF91E00E94CD0B8D8516
:1018000086FF04C081E08093060202C010920602A7
:101810008EEF91E00E94CD0B8D8585FF04C081E0A5
:1018200080930F0202C010920F0287E092E00E94A4
:10183000CD0B8D8584FF04C081E08093180202C027
:101840001092180280E192E00E94CD0B8D8583FFFB
:1018500004C081E08093210202C01092210289E13C
:1018600092E00E94CD0B8D8582FF04C081E08093C1
:101870002A0202C010922A0282E292E00E94CD0B5C
:101880008D8581FF04C081E08093330202C01092F5
:1018900033028BE292E00E94CD0B8D8580FF04C065
:1018A00081E080933C0202C010923C0284E392E00B
:1018B0000E94CD0B8C85882324F481E0809345021F
:1018C00002C0109245028DE392E00E94CD0B8C8500
:1018D00086FF04C081E080934E0202C010924E0247
:1018E00086E492E00E94CD0B8C8585FF04C081E0E8
:1018F0008093570202C0109257028FE492E00E9438
:10190000CD0B8C8584FF04C081E08093600202C00F
:101910001092600288E592E00E94CD0B8C8583FFD7
:1019200004C081E08093690202C01092690281E6DE
:1019300092E00E94CD0B8C8582FF04C081E08093F1
:10194000720202C0109272028AE692E00E94CD0BEF
:101950008C8581FF04C081E080937B0202C01092DD
:101960007B0283E792E00E94CD0B8C8580FF04C050
:1019700081E08093840202C0109284028CE792E09E
:101980000E94CD0BDF91CF910895CF93DF93FC019F
:10199000138614861586A5EFB1E01396CD91DC91E0
:1019A0001497888190E017960C9002C095958795C2
:1019B0000A94E2F780FF02C080E88587A5EFB1E0D6
:1019C0001C96CD91DC911D97888190E050960C90EB
:1019D00002C0959587950A94E2F780FF03C085853C
:1019E00080648587A5EFB1E05596CD91DC9156973F
:1019F000888190E059960C9002C0959587950A943D
:101A0000E2F780FF03C0858580628587A5EFB1E09E
:101A10005E96CD91DC915F97888190E092960C90D4
:101A200002C0959587950A94E2F780FF03C08585EB
:101A300080618587A5EFB1E09796CD91DC9198976D
:101A4000888190E09B960C9002C0959587950A94AA
:101A5000E2F780FF03C0858588608587A5EFB1E048
:101A6000D096CD91DC91D197888190E0D4960C905E
:101A700002C0959587950A94E2F780FF03C085859B
:101A800084608587A5EFB1E0D996CD91DC91DA9796
:101A9000888190E0DD960C9002C0959587950A9418
:101AA000E2F780FF03C0858582608587A0913702B9
:101AB000B09138028C9190E000903B0202C0959565
:101AC00087950A94E2F780FF03C08585816085874A
:101AD000A0914002B09141028C9190E000904402AC
:101AE00002C0959587950A94E2F780FF02C080E8CE
:101AF0008487A0914902B0914A028C9190E00090B5
:101B00004D0202C0959587950A94E2F780FF03C0C5
:101B1000848580648487A0915202B09153028C9195
:101B200090E00090560202C0959587950A94E2F7DE
:101B300080FF03C0848580628487A0915B02B0919E
:101B40005C028C9190E000905F0202C095958795B1
:101B50000A94E2F780FF03C0848580618487A091A6
:101B60006402B09165028C9190E00090680202C01E
:101B7000959587950A94E2F780FF03C08485886075
:101B80008487A0916D02B0916E028C9190E00090DC
:101B9000710202C0959587950A94E2F780FF03C011
:101BA000848584608487A0917602B09177028C91BD
:101BB00090E000907A0202C0959587950A94E2F72A
:101BC00080FF03C0848582608487A0917F02B091EA
:101BD00080028C9190E00090830202C095958795D9
:101BE0000A94E2F780FF03C0848581608487CF0177
:0E1BF0000E945B02DF91CF910895F894FFCF21
:00000001FF
