:100000000C945D000C94D5030C947A000C947A0047
:100010000C947A000C947A000C947A000C947A0078
:100020000C947A000C947A000C947A000C947A0068
:100030000C947A000C947A000C9412030C944503EF
:100040000C947A000C947A000C947A000C947A0048
:100050000C947A000C947A000C947A000C947A0038
:100060000C947A000C947A000C947A000C947A0028
:100070000C947A000C947A000C947A000C947A0018
:100080000C947A000C947A000C947A00FFC0000063
:10009000FFC00000FFC0000000380084FFC0000067
:1000A000FFC00000FFC0000000000084FFC000008F
:1000B000FFC0000002900703000011241FBECFEF15
:1000C000D0E1DEBFCDBF11E0A0E0B1E0E0E2FCE1B5
:1000D00002C005900D92A030B107D9F722E0A0E050
:1000E000B1E001C01D92A938B207E1F70E94DF0319
:1000F0000C940E0E0C940000CF92DF92EF92FF92C0
:100100000F931F93CF93DF9300D000D000D0CDB7D3
:10011000DEB70091000110910101209102013091A0
:100120000301082BC72ED12CE12CF12CCC0CDD1CAB
:10013000EE1CFF1CCC0CDD1CEE1CFF1CCC0CDD1CD3
:10014000EE1CFF1C0C291D292E293F29162BC52E1C
:10015000D12CE12CF12C0B2EBBE0CC0CDD1CEE1CC9
:10016000FF1CBA95D1F7B02D0C291D292E293F2946
:10017000242B892F90E0A0E0B0E0072E73E1880FD8
:10018000991FAA1FBB1F7A95D1F7702DBC01CD0115
:10019000602B712B822B932B6093000170930101D4
:1001A000809302019093030126960FB6F894DEBF68
:1001B0000FBECDBFDF91CF911F910F91FF90EF90B8
:1001C000DF90CF9008950F931F93CF93DF9300D0CC
:1001D00000D000D0CDB7DEB7F82FF7708B019C01AF
:1001E0000F2EFBE03695279517950795FA95D1F7D1
:1001F000F02DA02FAF71472F47708B019C016894A1
:1002000012F836952795179507951694D1F7502F24
:100210005F71E62FE7708B019C010F2EF3E136959D
:10022000279517950795FA95D1F7F02D702F7F70C8
:100230002F2F3A2F6E2F80E090E026960FB6F8947D
:10024000DEBF0FBECDBFDF91CF911F910F910895FB
:10025000CF93DF93D82FC62FC09882E00E940D0362
:100260008D2F0E940D038C2F0E940D03C09ADF91E9
:10027000CF910895CF93C82FC09883E00E940D03BB
:100280008C2F0E940D038FEF0E940D03C09ACF9117
:1002900008951F93CF93DF93182FD62FC42FC098A4
:1002A00085E00E940D03812F0E940D038D2F0E9477
:1002B0000D038C2F0E940D03C09ADF91CF911F91E7
:1002C0000895C0980E940D038FEF0E940D03C09AFD
:1002D00008950F931F93CF93DF93883008F048C0A1
:1002E000C09AB89AC198C298C398B99ABA9ABB985A
:1002F0000E940803C09880EC0E940D0389EF90E0F3
:100300000197F1F700C00000C09A91E29A95F1F7C9
:100310000000C09882E00E940D0380E00E940D035F
:10032000CCE8D0E009EB10E0FE0184910E940D03BF
:100330002196C017D107C1F7C09A60E680E60E94F7
:10034000280160E680E70E9428018A98929A89E253
:100350000E943A01C82F64E08FE00E942801C03952
:1003600049F48EE00E943A01807ED9F781E003C013
:1003700080E001C080E0DF91CF911F910F9108953F
:10038000CF92DF92EF92FF920F931F93CF93DF9361
:100390007C0180EB0E946101D82E8074C82ED6FCAF
:1003A00005C0DD200CF041C084E901C080E9C0989F
:1003B0000E940D03C7010E941F02F701948180FB78
:1003C00091F994838FEF0E940D03D3FA992790F946
:1003D000F701248190FB20F924838F708583882383
:1003E00089F0E70126969FEF980F092F10E0095F2B
:1003F0001F4F0E0D1F1D8FEF0E940D038993C01715
:10040000D107C9F7C09ACC2031F040E061E08CE21E
:100410000E94490105C040E062E08CE20E9449016F
:100420008D2D8770CC24C394C80E8C2DDF91CF9175
:100430001F910F91FF90EF90DF90CF9008951F9341
:10044000CF93DF93EC018FEF0E940D03182F8FEFF6
:100450000E940D03982F887093FF1EC08FEF8FB9F5
:1004600080E2189F900111243B832A83779BFECF63
:100470008FB189838FEF8FB9292F23708A81822BC7
:100480009695969596959C71982B9A83779BFECF1F
:100490008FB1888381E01CC02FEF2FB91B821A8295
:1004A000212F30E0220F331F220F331F220F331F63
:1004B00039832883779BFECF2FB12FEF2FB99295E9
:1004C000969597702881922B9883779BFECF9FB14A
:1004D000DF91CF911F910895DF92EF92FF920F93DA
:1004E0001F93CF93DF937C0180EA0E94610182FF1A
:1004F00008C084FF08C086FD42C06894DD24D2F89D
:1005000005C0D12C03C06894DD24D1F8C0988D2D8E
:1005100080640E940D03F701648166956170C701D4
:100520000E94C802F70115811F70848180FF05C0F9
:10053000812F80640E940D0314C0812F0E940D033F
:10054000112379F0E70126961150012F10E0095F81
:100550001F4F0E0D1F1D89910E940D03C017D1075B
:10056000D1F7C09A0000C098D11002C0DD24D39406
:100570008D2D80680E940D03C09A8D2D01C080E0F2
:10058000DF91CF911F910F91FF90EF90DF90089531
:10059000CF93DF93EC01662301F18A819B819695CD
:1005A0008795929582958F7089279F7089278FB93B
:1005B0009A81892F880F880F880F807E88609370BA
:1005C000892B779BFECF9FB10E940D0389810E94EA
:1005D0000D0388810E940D0318C08881998196952A
:1005E000879596958795969587958FB988818295F9
:1005F000880F807E779BFECF9FB10E940D0380E025
:100600000E940D0380E00E940D03DF91CF910895B9
:1006100081E58DB981E08EB908958FB9779BFECFC2
:100620008FB108951F920F920FB60F9211248F93DE
:100630009F93EF93FF93809106018F5F8093060154
:100640009091F2019F5F9093F201837029F4E0E2B0
:10065000F1E082858F5F828780910B018F3161F09D
:1006600080910501811105C0C49A81E08093050144
:1006700003C0C49810920501FF91EF919F918F9153
:100680000F900FBE0F901F9018951F920F920FB6EC
:100690000F9211242F933F938F939F93EF93FF9388
:1006A00012BE80910401882309F46EC09DEC899FDD
:1006B000912D112496959695292F220F220F920F96
:1006C000891305C0E3EFF1E090819F5F90839DEC7B
:1006D000899F912D1124969596959695990F292F7E
:1006E000220F220F920F891305C0E3EFF1E09181F1
:1006F0009F5F91839DEC899F912D112492959F700E
:10070000990F990F292F220F220F920F891305C0DD
:10071000E3EFF1E092819F5F928399E2899F912DAF
:100720001124969596959695382F22E3929F30192D
:100730001124311105C0E3EFF1E093819F5F9383B2
:1007400099E2899F912D112492959F70382F24E66C
:10075000929F30191124311105C0E3EFF1E094812B
:100760009F5F948391E0883C08F490E0382F28E361
:10077000929F300D1124311105C0E3EFF1E0958116
:100780009F5F9583883C20F48F5F8093040102C0B3
:1007900010920401FF91EF919F918F913F912F91C2
:1007A0000F900FBE0F901F9018951F920F920FB6CB
:1007B0000F9211240F900FBE0F901F9018950E945A
:1007C000F1080E94FD080E9407050E9463050E942F
:1007D00014062FEF81EE94E0215080409040E1F725
:1007E00000C0000084E00E946901E6EEF1E014829E
:1007F000CAE0D1E08881482F80838981582F818386
:1008000012821382158260E070E080E090E00E9426
:100810007C00E0E2F1E06083718382839383A4E251
:10082000B1E08C918E7F82608C9388E08583158601
:10083000148684E083878881ECE0F1E080839981ED
:10084000918391E09283138215828430B9F481E020
:100850008093100140910C0150910D0160910E01A7
:1008600070910F01909111010E947C006093120120
:1008700070931301809314019093150182E080938B
:10088000100140910C0150910D0160910E01709189
:100890000F01909111010E947C00EEE2F1E0608373
:1008A000718382839383A2E3B1E08C918E7F826017
:1008B0008C9398E09583E6E1F1E080818E7F826001
:1008C00080839093170199249A9488248A949FEFA7
:1008D0000F2EF0E2EF2EF1E0FF2EF02DCAE0D1E076
:1008E0000F2EFCEEAF2EF1E0BF2EF02D0F2EF3EF0A
:1008F000CF2EF1E0DF2EF02D01C0912FF7011285F0
:10090000191719F0C7010E946C0288818430E1F444
:100910000E946809882331F082E191E00E94190B5E
:10092000082D08C0F6010481081521F082E191E04C
:100930000E94190BF60184808914A1F08EE291E0E7
:100940000E94270A982C802E8881833061F4F6015A
:100950000481091509F455C08EE291E00E94D70C7C
:10096000902E01C0802E99819F3181F4888184303E
:1009700029F40E94A5050E94C705BFCF833009F066
:10098000BCCF092D0E94C705902EB7CF8CE391E014
:100990000E94C001882309F4B0CF60913C0170919E
:1009A0003D0180913E0190913F010E94E300209320
:1009B000EC013093ED014093EE015093EF01609311
:1009C000F0017093F1018881481397CFF50193816D
:1009D0008981981392CF809142018F3F19F40C9432
:1009E000007C8BCF433019F0443031F086CF8CE35C
:1009F00091E00E94010C81CF8CE391E00E94850977
:100A00007CCF89818F3109F4BDCF902EBFCFE4E632
:100A1000F0E08081877F808380818F7E8083BD9896
:100A2000BE98BF98E5E6F0E080818861808388B356
:100A3000806E88BB83EC99E00197F1F700C000005D
:100A4000E3E6F0E05081608136B396B370E06095E4
:100A5000709564FB222720F9452F50E04095509572
:100A6000487055275595479555954795240F432F21
:100A700050E0409550954072552755954795822FE7
:100A8000840F292F30E02095309520743327359539
:100A900027953595279535952795280F96B3892F56
:100AA00090E0809590958078992795958795959574
:100AB0008795959587959595879595958795820FB7
:100AC00080930B010895E1E6F0E080818D7F8083C3
:100AD00080818E7F8083D098E2E6F0E08081836021
:100AE0008083D89A83EC99E00197F1F700C0000069
:100AF00080B180958370C89B02C090E001C094E0F3
:100B0000892B833039F0843049F0823059F4809356
:100B10000A01089583E080930A01089584E0809398
:100B20000A01089587E080930A0108950E946809E8
:100B3000E2E5F1E02EEE31E080E0908191118F5FEF
:100B40003D96E217F307C9F708959091F50180915A
:100B50000901981771F00E949605813051F4809137
:100B6000F5018093090180FF02C0C49A0895C498DA
:100B700008950E949605823048F08091F301809399
:100B8000090180FF02C0C49A0895C4980895909105
:100B9000F60180910801981709F445C00E94960556
:100BA000811141C08091F6018093080180FF3AC015
:100BB000C49A80910701803160F5882389F090E024
:100BC00001979C01220F331F220F331F220F331F67
:100BD000820F931F87509E4FFC0110860E94DF0BEF
:100BE0008091070190E09C01220F331F220F331FD9
:100BF000220F331F820F931F87509E4F21E0FC016D
:100C000020870E94DF0B809107018F5F809307018F
:100C10000895109207011092880280E892E00E94E5
:100C2000DF0B0895C4980895BF92CF92DF92EF92A0
:100C3000FF920F931F93CF93DF9380910A0183302C
:100C400021F0843009F40EC1C1C2E9EFF1E061E0A6
:100C50006083A3E0A78345E350E05283418323E30D
:100C600030E03483238384E390E09683858372E0CD
:100C70007187708B5387428735872487978786874C
:100C8000A28B618F548B438B368B258B908F878BF8
:100C9000B4E0B38F12A2558F448F378F268F91A364
:100CA00080A3C5E0C4A363A745E650E056A345A3CF
:100CB00023E630E030A727A384E690E092A781A73F
:100CC000D6E0D5A714AA57A746A731AB20AB93AB64
:100CD00082AB87E086AB6093360202E310E010AF90
:100CE00007AB40E350E052AF41AF21E330E034AF17
:100CF00023AF98E09093380210923F0210933A028B
:100D00000093390250933C0240933B0230933E02E1
:100D100020933D0299E0909341028093480243E280
:100D200050E0509343024093420221E230E030937E
:100D300045022093440282E290E090934702809320
:100D40004602EAE0E0934A02D093510250934C02EB
:100D500040934B0230934E0220934D0290935002E9
:100D600080934F02EBE0E0935302C0935A025093FA
:100D700055024093540230935702209356029093A9
:100D8000590280935802ECE0E0935C02B093630256
:100D900050935E0240935D023093600220935F02A5
:100DA0009093620280936102EDE0E0936502A0936C
:100DB0006C0250936702409366023093690220935D
:100DC000680290936B0280936A02EEE0E0936E02F9
:100DD000709375025093700240936F0230937202C9
:100DE0002093710290937402809373027FE070935A
:100DF000770260937E025093790240937802309399
:100E00007B0220937A0290937D0280937C0260E1C2
:100E10006093800210928702509382024093810275
:100E200030938402209383029093860280938502FC
:100E3000E0E0F2E040E952E021E030E0DF0112972B
:100E40000D90BC91A02DC901008002C0880F991F90
:100E50000A94E2F79C91892B8C933996E417F50755
:100E600069F7B4C1E9EFF1E061E06083178242E322
:100E700050E05283418320E330E03483238381E3D5
:100E800090E096838583D2E0D187608B5387428739
:100E90003587248797878687C3E0C28B118E45E606
:100EA00050E0548B438B23E630E0368B258B84E671
:100EB00090E0908F878BB4E0B38F62A3558F448FFF
:100EC000378F268F91A380A3A5E0A4A313A645E3A3
:100ED00050E056A345A323E330E030A727A384E3E3
:100EE00090E092A781A776E075A764AB57A746A7C5
:100EF00031AB20AB93AB82AB67E066ABD0933602ED
:100F000050AF47AB32AF21AF94AF83AFE8E0E0938F
:100F10003802C0933F0250933A0240933902309313
:100F20003C0220933B0290933E0280933D0289E075
:100F300080934102B093480243E250E05093430251
:100F40004093420221E230E0309345022093440274
:100F500082E290E09093470280934602EAE0E093B9
:100F60004A02A093510250934C0240934B0230939B
:100F70004E0220934D029093500280934F02EBE07B
:100F8000E093530270935A025093550240935402D7
:100F9000309357022093560290935902809358023F
:100FA0007CE070935C026093630250935E02409316
:100FB0005D023093600220935F02909362028093FF
:100FC0006102E0E0F2E04CE652E021E030E0DF01D7
:100FD00012970D90BC91A02DC901008002C0880F0E
:100FE000991F0A94E2F79C91892B8C933996E41708
:100FF000F50769F7EAE4F1E0BB24B394B0820F2E61
:10100000F7E0DF2EF02DD7824BE350E0528341838F
:1010100029E330E0348323838AE390E09683858359
:101020006894EE24E1F8E586E48A65E670E0778767
:10103000668763E670E0718B608B64E670E0738BAB
:10104000628B0F2EF3E0CF2EF02DC28ED1A2C5E31E
:10105000D0E0D48FC38FA3E3B0E0B68FA58F64E355
:1010600070E070A3678F6894FF24F2F8F7A216E08F
:1010700016A7D1A7C0A7B3A7A2A775A764A705E025
:1010800004AB03AFD6ABC5ABB0AFA7AB72AF61AF2C
:1010900010938B01F0929201D0938D01C0938C013B
:1010A000B0938F01A0938E01709391016093900192
:1010B000D0929801B0929F0150939A014093990168
:1010C00030939C0120939B0190939E0180939D01FE
:1010D00068E06093A501E092AC015093A7014093B2
:1010E000A6013093A9012093A8019093AB018093AE
:1010F000AA0169E06093B201C092B9015093B401B2
:101100004093B3013093B6012093B5019093B80199
:101110008093B7016AE06093BF01F092C6015093DB
:10112000C1014093C0013093C3012093C201909349
:10113000C5018093C4016BE06093CC010093D3019F
:101140005093CE014093CD013093D0012093CF0135
:101150009093D2018093D1016CE06093D9011093F8
:10116000E0015093DB014093DA013093DD012093DD
:10117000DC019093DF018093DE01E1E5F1E0ABE477
:10118000B1E04DEE51E021E030E01496CD91DC91DC
:101190001597C901008002C0880F991F0A94E2F7D1
:1011A0008095988189238883CD91DC911197C9011D
:1011B000008002C0880F991F0A94E2F79881892B5A
:1011C00088833D961D96E417F507F9F6BC9ADF91E2
:1011D000CF911F910F91FF90EF90DF90CF90BF9034
:1011E000089583E08EBD83B7876083BF8CE981BF9C
:1011F00012BE87B7866087BF089578940895FC0172
:101200008085813071F4A181B28181E090E0078016
:1012100002C0880F991F0A94E2F79C91892B8C9346
:101220000895A181B28121E030E0C901078002C0A8
:10123000880F991F0A94E2F780959C9189238C93DB
:101240000895FC0181E090E0078002C0880F991F9B
:101250000A94E2F7A381B4819C91892311F014864A
:1012600014C08485811106C081E084878091F401D7
:1012700083870BC093858091F401981719F08085BE
:101280008823E1F08085813041F081E090859130C4
:1012900009F080E010861186089580E09285209103
:1012A000F201921314C09E5F92878185873020F4EB
:1012B0008F5F818781E0089581E00895118681E044
:1012C00080878091F2018E5F828781E0E7CF089569
:1012D000EF92FF921F93CF93DF93CAE4D1E00F2EDA
:1012E000F6EEEF2EF1E0FF2EF02D10E0CE010E9481
:1012F0002109182B2D96CE15DF05C1F7812FDF911F
:10130000CF911F91FF90EF900895CF93DF93EC0161
:101310008D85882324F481E08093010202C010921D
:10132000010289EF91E00E94FF088D8586FF04C0CD
:1013300081E080930A0202C010920A0282E092E0E9
:101340000E94FF088D8585FF04C081E08093130211
:1013500002C0109213028BE092E00E94FF088D857C
:1013600084FF04C081E080931C0202C010921C0222
:1013700084E192E00E94FF088D8583FF04C081E034
:101380008093250202C0109225028DE192E00E9416
:10139000FF088D8582FF04C081E080932E0202C089
:1013A00010922E0286E292E00E94FF088D8581FF56
:1013B00004C081E08093370202C0109237028FE2AE
:1013C00092E00E94FF088D8580FF04C081E0809339
:1013D000400202C01092400288E392E00E94FF089F
:1013E0008C85882324F481E08093490202C0109206
:1013F000490281E492E00E94FF088C8586FF04C0C8
:1014000081E08093520202C0109252028AE492E07C
:101410000E94FF088C8585FF04C081E080935B02F9
:1014200002C010925B0283E592E00E94FF088C8567
:1014300084FF04C081E08093640202C010926402C1
:101440008CE592E00E94FF08DF91CF910895CF9341
:10145000DF93FC01138614861586A9EFB1E013967D
:10146000CD91DC911497888190E017960C9002C082
:10147000959587950A94E2F780FF02C080E88587FA
:10148000A9EFB1E01C96CD91DC911D97888190E089
:1014900050960C9002C0959587950A94E2F780FFCC
:1014A00003C0858580648587A9EFB1E05596CD910D
:1014B000DC915697888190E059960C9002C09595E2
:1014C00087950A94E2F780FF03C08585806285874F
:1014D000A9EFB1E05E96CD91DC915F97888190E0B5
:1014E00092960C9002C0959587950A94E2F780FF3A
:1014F00003C0858580618587A9EFB1E09796CD917E
:10150000DC919897888190E09B960C9002C095950D
:1015100087950A94E2F780FF03C0858588608587F8
:10152000A9EFB1E0D096CD91DC91D197888190E080
:10153000D4960C9002C0959587950A94E2F780FFA7
:1015400003C0858584608587A0913202B091330203
:101550008C9190E00090360202C0959587950A9490
:10156000E2F780FF03C0858582608587A0913B02FA
:10157000B0913C028C9190E000903F0202C09595A2
:1015800087950A94E2F780FF03C08585816085878F
:10159000A0914402B09145028C9190E000904802E5
:1015A00002C0959587950A94E2F780FF03C0848571
:1015B00080688487A0914D02B0914E028C9190E09A
:1015C0000090510202C0959587950A94E2F780FF3A
:1015D00003C0848580648487A0915602B09157022D
:1015E0008C9190E000905A0202C0959587950A94DC
:1015F000E2F780FF03C0848580628487A0915F0248
:10160000B09160028C9190E00090630202C09595C9
:1016100087950A94E2F780FF03C084858061848700
:101620008485807F8487CF010E946C02DF91CF91F7
:101630000895FC01DC0116960D961D92A817B907B6
:10164000E1F7AAE4B1E018968C91189740E8849FDE
:101650009001112455969C91559740E4949FC001A8
:101660001124822B2091AD01822B92963C9192976E
:1016700090E2399FA0011124282F242B9F963C91A2
:101680009F9740E1349FC0011124822BDC969C91EE
:10169000DC97990F990F990F292F282B809193018F
:1016A000880F880F982F922B8091A001880F892B8B
:1016B00085878091C70190E4899F900111249091C2
:1016C000BA0140E8949FC0011124822B9091D4016B
:1016D00040E2949F90011124282B9091E10130E188
:1016E000939FC0011124822B19969C911997990FF1
:1016F000892B848756969C91569796959695892B1B
:10170000848756968C91569740E4849FC00111249B
:101710009385892B838793969C919397990F990F23
:10172000990F892B8387D0969C91892B83878091F1
:10173000870120E2829FC00111249285892B828734
:1017400090919401990F990F892B8287A1EAB1E0BA
:101750009C919695892B82878C9130E8839FC0015C
:1017600011242185282B21879091AE0140E1949F7F
:10177000C0011124822B81879091BB01990F892B85
:101780008187A8ECB1E09C9196959695892B8187ED
:101790008C9120E4829FC00111249085892B808741
:1017A0009091D501990F990F990F892B808790916E
:1017B000E201892B8087CF010E946C020895FC0111
:1017C0008085813071F4A181B28181E090E0078051
:1017D00002C0880F991F0A94E2F79C91892B8C9381
:1017E0000895A181B28121E030E0C901078002C0E3
:1017F000880F991F0A94E2F780959C9189238C9316
:101800000895CF93DF93EC018D85882324F481E044
:101810008093010202C01092010289EF91E00E94C0
:10182000DF0B8D8586FF04C081E080930A0202C031
:1018300010920A0282E092E00E94DF0B8D8585FF04
:1018400004C081E08093130202C0109213028BE067
:1018500092E00E94DF0B8D8584FF04C081E08093BD
:101860001C0202C010921C0284E192E00E94DF0B75
:101870008D8583FF04C081E08093250202C0109211
:1018800025028DE192E00E94DF0B8D8582FF04C06E
:1018900081E080932E0202C010922E0286E292E036
:1018A0000E94DF0B8D8581FF04C081E080933702A9
:1018B00002C0109237028FE292E00E94DF0B8D850A
:1018C00080FF04C081E08093400202C01092400279
:1018D00088E392E00E94DF0B8C85882324F481E06A
:1018E0008093490202C01092490281E492E00E9472
:1018F000DF0B8C8586FF04C081E08093520202C01A
:10190000109252028AE492E00E94DF0B8C8585FFE0
:1019100004C081E080935B0202C010925B0283E509
:1019200092E00E94DF0B8C8584FF04C081E08093ED
:10193000640202C0109264028CE592E00E94DF0B08
:101940008C8583FF04C081E080936D0202C01092F9
:101950006D0285E692E00E94DF0B8C8582FF04C059
:1019600081E08093760202C0109276028EE692E0C9
:101970000E94DF0B8C8581FF04C081E080937F0291
:1019800002C010927F0287E792E00E94DF0B8C85F5
:1019900080FF04C081E08093880202C01092880218
:1019A00080E892E00E94DF0BDF91CF910895CF9302
:1019B000DF93FC01138614861586A9EFB1E0139618
:1019C000CD91DC911497888190E017960C9002C01D
:1019D000959587950A94E2F780FF02C080E8858795
:1019E000A9EFB1E01C96CD91DC911D97888190E024
:1019F00050960C9002C0959587950A94E2F780FF67
:101A000003C0858580648587A9EFB1E05596CD91A7
:101A1000DC915697888190E059960C9002C095957C
:101A200087950A94E2F780FF03C0858580628587E9
:101A3000A9EFB1E05E96CD91DC915F97888190E04F
:101A400092960C9002C0959587950A94E2F780FFD4
:101A500003C0858580618587A9EFB1E09796CD9118
:101A6000DC919897888190E09B960C9002C09595A8
:101A700087950A94E2F780FF03C085858860858793
:101A8000A9EFB1E0D096CD91DC91D197888190E01B
:101A9000D4960C9002C0959587950A94E2F780FF42
:101AA00003C0858584608587A0913202B09133029E
:101AB0008C9190E00090360202C0959587950A942B
:101AC000E2F780FF03C0858582608587A0913B0295
:101AD000B0913C028C9190E000903F0202C095953D
:101AE00087950A94E2F780FF03C08585816085872A
:101AF000A0914402B09145028C9190E00090480280
:101B000002C0959587950A94E2F780FF03C084850B
:101B100080688487A0914D02B0914E028C9190E034
:101B20000090510202C0959587950A94E2F780FFD4
:101B300003C0848580648487A0915602B0915702C7
:101B40008C9190E000905A0202C0959587950A9476
:101B5000E2F780FF03C0848580628487A0915F02E2
:101B6000B09160028C9190E00090630202C0959564
:101B700087950A94E2F780FF03C08485806184879B
:101B8000A0916802B09169028C9190E000906C0283
:101B900002C0959587950A94E2F780FF03C084857B
:101BA00088608487A0917102B09172028C9190E05C
:101BB0000090750202C0959587950A94E2F780FF20
:101BC00003C0848584608487A0917A02B0917B02EF
:101BD0008C9190E000907E0202C0959587950A94C2
:101BE000E2F780FF03C0848582608487A09183022E
:101BF000B09184028C9190E00090870202C095958C
:101C000087950A94E2F780FF03C08485816084870A
:101C1000CF010E946C02DF91CF910895F894FFCF1D
:00000001FF
