:100000000C945D000C94D5030C947A000C947A0047
:100010000C947A000C947A000C947A000C947A0078
:100020000C947A000C947A000C947A000C947A0068
:100030000C947A000C947A000C9412030C944503EF
:100040000C947A000C947A000C947A000C947A0048
:100050000C947A000C947A000C947A000C947A0038
:100060000C947A000C947A000C947A000C947A0028
:100070000C947A000C947A000C947A000C947A0018
:100080000C947A000C947A000C947A00FFC0000063
:10009000FFC00000FFC0000000380084FFC0000067
:1000A000FFC00000FFC0000000000084FFC000008F
:1000B000FFC0000002900703000011241FBECFEF15
:1000C000D0E1DEBFCDBF11E0A0E0B1E0E6E2F6E1B5
:1000D00002C005900D92A030B107D9F722E0A0E050
:1000E000B1E001C01D92AB35B207E1F70E94DF031A
:1000F0000C94110B0C940000CF92DF92EF92FF92C0
:100100000F931F93CF93DF9300D000D000D0CDB7D3
:10011000DEB70091000110910101209102013091A0
:100120000301082BC72ED12CE12CF12CCC0CDD1CAB
:10013000EE1CFF1CCC0CDD1CEE1CFF1CCC0CDD1CD3
:10014000EE1CFF1C0C291D292E293F29162BC52E1C
:10015000D12CE12CF12C0B2EBBE0CC0CDD1CEE1CC9
:10016000FF1CBA95D1F7B02D0C291D292E293F2946
:10017000242B892F90E0A0E0B0E0072E73E1880FD8
:10018000991FAA1FBB1F7A95D1F7702DBC01CD0115
:10019000602B712B822B932B6093000170930101D4
:1001A000809302019093030126960FB6F894DEBF68
:1001B0000FBECDBFDF91CF911F910F91FF90EF90B8
:1001C000DF90CF9008950F931F93CF93DF9300D0CC
:1001D00000D000D0CDB7DEB7F82FF7708B019C01AF
:1001E0000F2EFBE03695279517950795FA95D1F7D1
:1001F000F02DA02FAF71472F47708B019C016894A1
:1002000012F836952795179507951694D1F7502F24
:100210005F71E62FE7708B019C010F2EF3E136959D
:10022000279517950795FA95D1F7F02D702F7F70C8
:100230002F2F3A2F6E2F80E090E026960FB6F8947D
:10024000DEBF0FBECDBFDF91CF911F910F910895FB
:10025000CF93DF93D82FC62FC09882E00E940D0362
:100260008D2F0E940D038C2F0E940D03C09ADF91E9
:10027000CF910895CF93C82FC09883E00E940D03BB
:100280008C2F0E940D038FEF0E940D03C09ACF9117
:1002900008951F93CF93DF93182FD62FC42FC098A4
:1002A00085E00E940D03812F0E940D038D2F0E9477
:1002B0000D038C2F0E940D03C09ADF91CF911F91E7
:1002C0000895C0980E940D038FEF0E940D03C09AFD
:1002D00008950F931F93CF93DF93883008F048C0A1
:1002E000C09AB89AC198C298C398B99ABA9ABB985A
:1002F0000E940803C09880EC0E940D0389EF90E0F3
:100300000197F1F700C00000C09A91E29A95F1F7C9
:100310000000C09882E00E940D0380E00E940D035F
:10032000CCE8D0E009EB10E0FE0184910E940D03BF
:100330002196C017D107C1F7C09A60E680E60E94F7
:10034000280160E680E70E9428018A98929A89E253
:100350000E943A01C82F64E08FE00E942801C03952
:1003600049F48EE00E943A01807ED9F781E003C013
:1003700080E001C080E0DF91CF911F910F9108953F
:10038000CF92DF92EF92FF920F931F93CF93DF9361
:100390007C0180EB0E946101D82E8074C82ED6FCAF
:1003A00005C0DD200CF041C084E901C080E9C0989F
:1003B0000E940D03C7010E941F02F701948180FB78
:1003C00091F994838FEF0E940D03D3FA992790F946
:1003D000F701248190FB20F924838F708583882383
:1003E00089F0E70126969FEF980F092F10E0095F2B
:1003F0001F4F0E0D1F1D8FEF0E940D038993C01715
:10040000D107C9F7C09ACC2031F040E061E08CE21E
:100410000E94490105C040E062E08CE20E9449016F
:100420008D2D8770CC24C394C80E8C2DDF91CF9175
:100430001F910F91FF90EF90DF90CF9008951F9341
:10044000CF93DF93EC018FEF0E940D03182F8FEFF6
:100450000E940D03982F887093FF1EC08FEF8FB9F5
:1004600080E2189F900111243B832A83779BFECF63
:100470008FB189838FEF8FB9292F23708A81822BC7
:100480009695969596959C71982B9A83779BFECF1F
:100490008FB1888381E01CC02FEF2FB91B821A8295
:1004A000212F30E0220F331F220F331F220F331F63
:1004B00039832883779BFECF2FB12FEF2FB99295E9
:1004C000969597702881922B9883779BFECF9FB14A
:1004D000DF91CF911F910895DF92EF92FF920F93DA
:1004E0001F93CF93DF937C0180EA0E94610182FF1A
:1004F00008C084FF08C086FD42C06894DD24D2F89D
:1005000005C0D12C03C06894DD24D1F8C0988D2D8E
:1005100080640E940D03F701648166956170C701D4
:100520000E94C802F70115811F70848180FF05C0F9
:10053000812F80640E940D0314C0812F0E940D033F
:10054000112379F0E70126961150012F10E0095F81
:100550001F4F0E0D1F1D89910E940D03C017D1075B
:10056000D1F7C09A0000C098D11002C0DD24D39406
:100570008D2D80680E940D03C09A8D2D01C080E0F2
:10058000DF91CF911F910F91FF90EF90DF90089531
:10059000CF93DF93EC01662301F18A819B819695CD
:1005A0008795929582958F7089279F7089278FB93B
:1005B0009A81892F880F880F880F807E88609370BA
:1005C000892B779BFECF9FB10E940D0389810E94EA
:1005D0000D0388810E940D0318C08881998196952A
:1005E000879596958795969587958FB988818295F9
:1005F000880F807E779BFECF9FB10E940D0380E025
:100600000E940D0380E00E940D03DF91CF910895B9
:1006100081E58DB981E08EB908958FB9779BFECFC2
:100620008FB108951F920F920FB60F9211248F93DE
:100630009F93EF93FF93809106018F5F8093060154
:100640009091E4019F5F9093E401837029F4E0E2CC
:10065000F1E082858F5F828780910B018F3161F09D
:1006600080910501811105C0C49A81E08093050144
:1006700003C0C49810920501FF91EF919F918F9153
:100680000F900FBE0F901F9018951F920F920FB6EC
:100690000F9211242F933F938F939F93EF93FF9388
:1006A00012BE80910401882309F46EC09DEC899FDD
:1006B000912D112496959695292F220F220F920F96
:1006C000891305C0E5EEF1E090819F5F90839DEC7A
:1006D000899F912D1124969596959695990F292F7E
:1006E000220F220F920F891305C0E5EEF1E09181F0
:1006F0009F5F91839DEC899F912D112492959F700E
:10070000990F990F292F220F220F920F891305C0DD
:10071000E5EEF1E092819F5F928399E2899F912DAE
:100720001124969596959695382F22E3929F30192D
:100730001124311105C0E5EEF1E093819F5F9383B1
:1007400099E2899F912D112492959F70382F24E66C
:10075000929F30191124311105C0E5EEF1E094812A
:100760009F5F948391E0883C08F490E0382F28E361
:10077000929F300D1124311105C0E5EEF1E0958115
:100780009F5F9583883C20F48F5F8093040102C0B3
:1007900010920401FF91EF919F918F913F912F91C2
:1007A0000F900FBE0F901F9018951F920F920FB6CB
:1007B0000F9211240F900FBE0F901F9018950E945A
:1007C0001D080E9429080E94B4040E9410050E947E
:1007D000BC052FEF81EE94E0215080409040E1F77E
:1007E00000C0000084E00E946901E8EDF1E014829D
:1007F000CAE0D1E08881482F80838981582F818386
:1008000012821382158260E070E080E090E00E9426
:100810007C00E0E2F1E06083718382839383A4E251
:10082000B1E08C918E7F82608C9388E08583158601
:10083000148683E0838788818430D9F4ECE0F1E08A
:1008400081E0848394E0492F908390910B01592F8C
:100850009183682F82831382158270E090E00E945A
:100860007C006093120170931301809314019093A4
:100870001501E6E1F1E080818E7F8260808388E06F
:10088000809317019FEF0F2EF0E2EF2EF1E0FF2E85
:10089000F02DCAE0D1E00F2EFEEDCF2EF1E0DF2EDD
:1008A000F02D01C0912FF7011285191719F0C7011A
:1008B0000E946C029881943009F052C00E94940802
:1008C000882321F082E191E00E94530999819F31B0
:1008D00069F49881943029F40E9452050E947405AD
:1008E000E1CF9330F9F60E947405DCCF8EE291E0FF
:1008F0000E94C0018823B1F260912E0170912F01F6
:1009000080913001909131010E94E3002093DE013B
:100910003093DF014093E0015093E1016093E201E5
:100920007093E30188814813BDCFF60193818981DB
:100930009813B8CF809134018F3F19F40C94007C48
:10094000B1CF433019F0443031F0ACCF8EE291E0BA
:100950000E943B0AA7CF8EE291E00E94B108A2CF8D
:1009600089818F3119F6BDCFE4E6F0E08081877F81
:10097000808380818F7E8083BD98BE98BF98E5E696
:10098000F0E080818861808388B3806E88BB83ECCF
:1009900099E00197F1F700C00000E3E6F0E0508134
:1009A000608136B396B370E06095709564FB222742
:1009B00020F9452F50E040955095487055275595A2
:1009C000479555954795240F432F50E040955095F6
:1009D0004072552755954795822F840F292F30E077
:1009E0002095309520743327359527953595279593
:1009F00035952795280F96B3892F90E0809590958F
:100A0000807899279595879595958795959587955C
:100A10009595879595958795820F80930B010895FD
:100A2000E1E6F0E080818D7F808380818E7F80830E
:100A3000D098E2E6F0E0808183608083D89A83ECEE
:100A400099E00197F1F700C0000080B180958370B4
:100A5000C89B02C090E001C094E0892B833039F03C
:100A6000843049F0823059F480930A01089583E07C
:100A700080930A01089584E080930A01089587E035
:100A800080930A0108950E949408E4E4F1E020EEC6
:100A900031E080E0908191118F5F3D96E217F3077E
:100AA000C9F708959091E70180910901981771F0B5
:100AB0000E944305813051F48091E7018093090140
:100AC00080FF02C0C49A0895C49808950E94430507
:100AD000823048F08091E5018093090180FF02C0D7
:100AE000C49A0895C49808959091E80180910801EE
:100AF000981709F440C00E94430581113CC08091C1
:100B0000E8018093080180FF35C0C49A2091070155
:100B1000203138F5222391F030E021503109C9010C
:100B2000880F991F880F991F880F991F821B930B9D
:100B300085519E4FFC0116820E94190A809107017F
:100B4000F7E08F9FC001112485519E4F21E0FC01E9
:100B500026830E94190A809107018F5F8093070105
:100B600008951092070110925A0284E592E00E94C3
:100B7000190A0895C4980895BF92CF92DF92EF9218
:100B8000FF920F931F93CF93DF9380910A018330DD
:100B900021F0843009F4C8C045C2EBEEF1E041E039
:100BA000408363E0658325E330E03283218384E37F
:100BB00090E09483838352E0578354873187208762
:100BC000938782876687438B308B2787928B818BB5
:100BD00074E0758B128E378B268B918F808FA5E0FA
:100BE000A48F41A325E630E0368F258F84E690E080
:100BF00090A3878FB6E0B3A310A635A324A397A331
:100C000086A387E082A747A7C2E3D0E0D4A7C3A703
:100C100021E330E036A725A798E091AB16AAD3AB25
:100C2000C2AB35AB24AB99E090AF8093280223E2AE
:100C300030E032AF21AF82E290E094AF83AFEAE0E0
:100C4000E0932A02B0932F0230932C0220932B02C0
:100C500090932E0280932D02EBE0E0933102A0935B
:100C60003602309333022093320290933502809300
:100C70003402ECE0E093380270933D0230933A0284
:100C80002093390290933C0280933B027DE0709365
:100C90003F026093440230934102209340029093BC
:100CA0004302809342026EE06093460250934B02EF
:100CB000309348022093470290934A02809349025E
:100CC0005FE050934D024093520230934F022093C5
:100CD0004E02909351028093500240E1409354029F
:100CE0001092590230935602209355029093580265
:100CF00080935702E0EFF1E040E652E021E030E07F
:100D0000DF0112970D90BC91A02DC901008002C097
:100D1000880F991F0A94E2F79C91892B8C93379640
:100D2000E417F50769F77EC1EBEEF1E041E040839F
:100D3000158222E330E03283218381E390E09483C3
:100D40008383B2E0B7834487318720879387828784
:100D5000A3E0A687138A25E630E0308B278784E658
:100D600090E0928B818B74E0758B428F378B268B52
:100D7000918F808F65E0648F11A225E330E0368F7C
:100D8000258F84E390E090A3878F56E053A340A77C
:100D900035A324A397A386A347E042A7B7A734A708
:100DA00023A796A785A7B8E0B1ABA6AB33AB22AB20
:100DB00095AB84AB89E080AF7093280223E230E0EA
:100DC00032AF21AF82E290E094AF83AF7AE07093CC
:100DD0002A0260932F0230932C0220932B029093CF
:100DE0002E0280932D026BE0609331025093360205
:100DF0003093330220933202909335028093340271
:100E00005CE05093380240933D0230933A022093C5
:100E1000390290933C0280933B02E0EFF1E044E41E
:100E200052E021E030E0DF0112970D90BC91A02D3F
:100E3000C901008002C0880F991F0A94E2F79C91B3
:100E4000892B8C933796E417F50769F7ECE3F1E00B
:100E5000BB24B394B0820F2EF7E0DF2EF02DD782A3
:100E60004BE350E05283418329E330E03483238312
:100E70008AE390E0968385836894EE24E1F8E58622
:100E8000E48A65E670E07787668763E670E0718BD9
:100E9000608B64E670E0738B628B0F2EF3E0CF2ED5
:100EA000F02DC28ED1A2C5E3D0E0D48FC38FA3E3CF
:100EB000B0E0B68FA58F64E370E070A3678F68948D
:100EC000FF24F2F8F7A216E016A7D1A7C0A7B3A790
:100ED000A2A775A764A705E004AB03AFD6ABC5AB6B
:100EE000B0AFA7AB72AF61AF10937D01F0928401F8
:100EF000D0937F01C0937E01B0938101A0938001C4
:100F00007093830160938201D0928A01B092910123
:100F100050938C0140938B0130938E0120938D016F
:100F20009093900180938F0168E060939701E09225
:100F30009E01509399014093980130939B01209317
:100F40009A0190939D0180939C0169E06093A401B4
:100F5000C092AB015093A6014093A5013093A80124
:100F60002093A7019093AA018093A9016AE060935E
:100F7000B101F092B8015093B3014093B2013093A4
:100F8000B5012093B4019093B7018093B6016BE053
:100F90006093BE010093C5015093C0014093BF010F
:100FA0003093C2012093C1019093C4018093C30187
:100FB0006CE06093CB011093D2015093CD0140932C
:100FC000CC013093CF012093CE019093D101809337
:100FD000D001E3E4F1E0ADE3B1E04FED51E021E019
:100FE00030E01496CD91DC911597C901008002C0C4
:100FF000880F991F0A94E2F7809598818923888346
:10100000CD91DC911197C901008002C0880F991F12
:101010000A94E2F79881892B88833D961D96E41700
:10102000F507F9F6BC9ADF91CF911F910F91FF90D0
:10103000EF90DF90CF90BF90089583E08EBD83B78F
:10104000876083BF8CE981BF12BE87B7866087BF88
:10105000089578940895FC018681813071F4A1810E
:10106000B28181E090E0058002C0880F991F0A9448
:10107000E2F79C91892B8C930895A181B28121E0A4
:1010800030E0C901058002C0880F991F0A94E2F779
:1010900080959C9189238C930895FC0181E090E0D8
:1010A000078002C0880F991F0A94E2F7A381B481D8
:1010B0009C91892311F0148614C08485811106C087
:1010C00081E084878091E60183870BC093858091BE
:1010D000E601981719F080858823E1F0808581303A
:1010E00041F081E09085913009F080E01086118612
:1010F000089580E092852091E401921314C09E5FD0
:1011000092878185873020F48F5F818781E0089501
:1011100081E00895118681E080878091E4018E5FEF
:10112000828781E0E7CF0895EF92FF921F93CF93DC
:10113000DF93CCE3D1E00F2EF8EDEF2EF1E0FF2EA0
:10114000F02D10E0CE010E944D08182B2D96CE15E3
:10115000DF05C1F7812FDF91CF911F91FF90EF90B5
:101160000895CF93DF93EC018D85882324F481E0EB
:101170008093F10102C01092F1018BEE91E00E9488
:101180002B088D8586FF04C081E08093F80102C0A2
:101190001092F80182EF91E00E942B088D8585FF67
:1011A00004C081E08093FF0102C01092FF0189EF2B
:1011B00091E00E942B088D8584FF04C081E080931C
:1011C000060202C01092060280E092E00E942B0804
:1011D0008D8583FF04C081E080930D0202C01092D0
:1011E0000D0287E092E00E942B088D8582FF04C0EB
:1011F00081E08093140202C0109214028EE092E00B
:101200000E942B088D8581FF04C081E080931B0222
:1012100002C010921B0285E192E00E942B088D858E
:1012200080FF04C081E08093220202C0109222025B
:101230008CE192E00E942B088C85882324F481E0C5
:101240008093290202C01092290283E292E00E9458
:101250002B088C8586FF04C081E08093300202C099
:10126000109230028AE292E00E942B088C8585FF62
:1012700004C081E08093370202C01092370281E3FC
:1012800092E00E942B088C8584FF04C081E080934B
:101290003E0202C010923E0288E392E00E942B08B8
:1012A000DF91CF910895FC01DC0116960D961D92F9
:1012B000A817B907E1F7ACE3B1E018968C9118973D
:1012C00040E8849F9001112455969C91559740E4E5
:1012D000949FC0011124822B20919F01822B929612
:1012E0003C91929790E2399FA0011124282F242B42
:1012F0009F963C919F9740E1349FC0011124822B1F
:10130000DC969C91DC97990F990F990F292F282B28
:1013100080918501880F880F982F922B80919201E0
:10132000880F892B85878091B90190E4899F90016E
:1013300011249091AC0140E8949FC0011124822BAC
:101340009091C60140E2949F90011124282B909126
:10135000D30130E1939FC0011124822B19969C91F7
:101360001997990F892B848756969C915697969535
:101370009695892B848756968C91569740E4849F46
:10138000C00111249385892B838793969C91939711
:10139000990F990F990F892B8387D0969C91892B50
:1013A00083878091790120E2829FC0011124928578
:1013B000892B828790918601990F990F892B8287BB
:1013C000A3E9B1E09C919695892B82878C9130E8B6
:1013D000839FC00111242185282B21879091A00192
:1013E00040E1949FC0011124822B81879091AD012F
:1013F000990F892B8187AAEBB1E09C9196959695E0
:10140000892B81878C9120E4829FC00111249085D3
:10141000892B80879091C701990F990F990F892B7C
:1014200080879091D401892B8087CF010E946C0224
:101430000895FC018681813071F4A181B28181E03F
:1014400090E0058002C0880F991F0A94E2F79C91F2
:10145000892B8C930895A181B28121E030E0C901EC
:10146000058002C0880F991F0A94E2F780959C912D
:1014700089238C930895CF93DF93EC018D85882386
:1014800024F481E08093F10102C01092F1018BEE0F
:1014900091E00E94190A8D8586FF04C081E0809347
:1014A000F80102C01092F80182EF91E00E94190A3F
:1014B0008D8585FF04C081E08093FF0102C01092FA
:1014C000FF0189EF91E00E94190A8D8584FF04C015
:1014D00081E08093060202C01092060280E092E052
:1014E0000E94190A8D8583FF04C081E080930D025C
:1014F00002C010920D0287E092E00E94190A8D85C9
:1015000082FF04C081E08093140202C01092140292
:101510008EE092E00E94190A8D8581FF04C081E06F
:1015200080931B0202C010921B0285E192E00E9490
:10153000190A8D8580FF04C081E08093220202C0D9
:10154000109222028CE192E00E94190A8C85882375
:1015500024F481E08093290202C01092290283E2E0
:1015600092E00E94190A8C8586FF04C081E0809376
:10157000300202C0109230028AE292E00E94190A00
:101580008C8585FF04C081E08093370202C01092F1
:10159000370281E392E00E94190A8C8584FF04C01F
:1015A00081E080933E0202C010923E0288E392E006
:1015B0000E94190A8C8583FF04C081E08093450254
:1015C00002C0109245028FE392E00E94190A8C85B6
:1015D00082FF04C081E080934C0202C010924C0252
:1015E00086E492E00E94190A8C8581FF04C081E0A4
:1015F0008093530202C0109253028DE492E00E9445
:10160000190A8C8580FF04C081E080935A0202C0D1
:1016100010925A0284E592E00E94190ADF91CF915C
:061620000895F894FFCFCD
:00000001FF
