:100000000C945D000C94D5030C947A000C947A0047
:100010000C947A000C947A000C947A000C947A0078
:100020000C947A000C947A000C947A000C947A0068
:100030000C947A000C947A000C9412030C944503EF
:100040000C947A000C947A000C947A000C947A0048
:100050000C947A000C947A000C947A000C947A0038
:100060000C947A000C947A000C947A000C947A0028
:100070000C947A000C947A000C947A000C947A0018
:100080000C947A000C947A000C947A00FFC0000063
:10009000FFC00000FFC0000000380084FFC0000067
:1000A000FFC00000FFC0000000000084FFC000008F
:1000B000FFC0000002900703000011241FBECFEF15
:1000C000D0E1DEBFCDBF11E0A0E0B1E0E6E1F5E1B7
:1000D00002C005900D92A030B107D9F722E0A0E050
:1000E000B1E001C01D92A334B207E1F70E94DF0323
:1000F0000C94890A0C940000CF92DF92EF92FF9249
:100100000F931F93CF93DF9300D000D000D0CDB7D3
:10011000DEB70091000110910101209102013091A0
:100120000301082BC72ED12CE12CF12CCC0CDD1CAB
:10013000EE1CFF1CCC0CDD1CEE1CFF1CCC0CDD1CD3
:10014000EE1CFF1C0C291D292E293F29162BC52E1C
:10015000D12CE12CF12C0B2EBBE0CC0CDD1CEE1CC9
:10016000FF1CBA95D1F7B02D0C291D292E293F2946
:10017000242B892F90E0A0E0B0E0072E73E1880FD8
:10018000991FAA1FBB1F7A95D1F7702DBC01CD0115
:10019000602B712B822B932B6093000170930101D4
:1001A000809302019093030126960FB6F894DEBF68
:1001B0000FBECDBFDF91CF911F910F91FF90EF90B8
:1001C000DF90CF9008950F931F93CF93DF9300D0CC
:1001D00000D000D0CDB7DEB7F82FF7708B019C01AF
:1001E0000F2EFBE03695279517950795FA95D1F7D1
:1001F000F02DA02FAF71472F47708B019C016894A1
:1002000012F836952795179507951694D1F7502F24
:100210005F71E62FE7708B019C010F2EF3E136959D
:10022000279517950795FA95D1F7F02D702F7F70C8
:100230002F2F3A2F6E2F80E090E026960FB6F8947D
:10024000DEBF0FBECDBFDF91CF911F910F910895FB
:10025000CF93DF93D82FC62FC09882E00E940D0362
:100260008D2F0E940D038C2F0E940D03C09ADF91E9
:10027000CF910895CF93C82FC09883E00E940D03BB
:100280008C2F0E940D038FEF0E940D03C09ACF9117
:1002900008951F93CF93DF93182FD62FC42FC098A4
:1002A00085E00E940D03812F0E940D038D2F0E9477
:1002B0000D038C2F0E940D03C09ADF91CF911F91E7
:1002C0000895C0980E940D038FEF0E940D03C09AFD
:1002D00008950F931F93CF93DF93883008F048C0A1
:1002E000C09AB89AC198C298C398B99ABA9ABB985A
:1002F0000E940803C09880EC0E940D0389EF90E0F3
:100300000197F1F700C00000C09A91E29A95F1F7C9
:100310000000C09882E00E940D0380E00E940D035F
:10032000CCE8D0E009EB10E0FE0184910E940D03BF
:100330002196C017D107C1F7C09A60E680E60E94F7
:10034000280160E680E70E9428018A98929A89E253
:100350000E943A01C82F64E08FE00E942801C03952
:1003600049F48EE00E943A01807ED9F781E003C013
:1003700080E001C080E0DF91CF911F910F9108953F
:10038000CF92DF92EF92FF920F931F93CF93DF9361
:100390007C0180EB0E946101D82E8074C82ED6FCAF
:1003A00005C0DD200CF041C084E901C080E9C0989F
:1003B0000E940D03C7010E941F02F701948180FB78
:1003C00091F994838FEF0E940D03D3FA992790F946
:1003D000F701248190FB20F924838F708583882383
:1003E00089F0E70126969FEF980F092F10E0095F2B
:1003F0001F4F0E0D1F1D8FEF0E940D038993C01715
:10040000D107C9F7C09ACC2031F040E061E08CE21E
:100410000E94490105C040E062E08CE20E9449016F
:100420008D2D8770CC24C394C80E8C2DDF91CF9175
:100430001F910F91FF90EF90DF90CF9008951F9341
:10044000CF93DF93EC018FEF0E940D03182F8FEFF6
:100450000E940D03982F887093FF1EC08FEF8FB9F5
:1004600080E2189F900111243B832A83779BFECF63
:100470008FB189838FEF8FB9292F23708A81822BC7
:100480009695969596959C71982B9A83779BFECF1F
:100490008FB1888381E01CC02FEF2FB91B821A8295
:1004A000212F30E0220F331F220F331F220F331F63
:1004B00039832883779BFECF2FB12FEF2FB99295E9
:1004C000969597702881922B9883779BFECF9FB14A
:1004D000DF91CF911F910895DF92EF92FF920F93DA
:1004E0001F93CF93DF937C0180EA0E94610182FF1A
:1004F00008C084FF08C086FD42C06894DD24D2F89D
:1005000005C0D12C03C06894DD24D1F8C0988D2D8E
:1005100080640E940D03F701648166956170C701D4
:100520000E94C802F70115811F70848180FF05C0F9
:10053000812F80640E940D0314C0812F0E940D033F
:10054000112379F0E70126961150012F10E0095F81
:100550001F4F0E0D1F1D89910E940D03C017D1075B
:10056000D1F7C09A0000C098D11002C0DD24D39406
:100570008D2D80680E940D03C09A8D2D01C080E0F2
:10058000DF91CF911F910F91FF90EF90DF90089531
:10059000CF93DF93EC01662301F18A819B819695CD
:1005A0008795929582958F7089279F7089278FB93B
:1005B0009A81892F880F880F880F807E88609370BA
:1005C000892B779BFECF9FB10E940D0389810E94EA
:1005D0000D0388810E940D0318C08881998196952A
:1005E000879596958795969587958FB988818295F9
:1005F000880F807E779BFECF9FB10E940D0380E025
:100600000E940D0380E00E940D03DF91CF910895B9
:1006100081E58DB981E08EB908958FB9779BFECFC2
:100620008FB108951F920F920FB60F9211248F93DE
:100630009F93EF93FF93809106018F5F8093060154
:100640009091CC019F5F9093CC01837029F4E0E2FC
:10065000F1E082858F5F828780910B018F3161F09D
:1006600080910501811105C0C49A81E08093050144
:1006700003C0C49810920501FF91EF919F918F9153
:100680000F900FBE0F901F9018951F920F920FB6EC
:100690000F9211242F933F938F939F93EF93FF9388
:1006A00012BE80910401882309F46EC09DEC899FDD
:1006B000912D112496959695292F220F220F920F96
:1006C000891305C0EDECF1E090819F5F90839DEC74
:1006D000899F912D1124969596959695990F292F7E
:1006E000220F220F920F891305C0EDECF1E09181EA
:1006F0009F5F91839DEC899F912D112492959F700E
:10070000990F990F292F220F220F920F891305C0DD
:10071000EDECF1E092819F5F928399E2899F912DA8
:100720001124969596959695382F22E3929F30192D
:100730001124311105C0EDECF1E093819F5F9383AB
:1007400099E2899F912D112492959F70382F24E66C
:10075000929F30191124311105C0EDECF1E0948124
:100760009F5F948391E0883C08F490E0382F28E361
:10077000929F300D1124311105C0EDECF1E095810F
:100780009F5F9583883C20F48F5F8093040102C0B3
:1007900010920401FF91EF919F918F913F912F91C2
:1007A0000F900FBE0F901F9018951F920F920FB6CB
:1007B0000F9211240F900FBE0F901F9018950E945A
:1007C000A8070E94B4070E94B4040E9410050E946A
:1007D000BC052FEF81EE94E0215080409040E1F77E
:1007E00000C0000084E00E946901E0ECF1E01482A6
:1007F000CAE0D1E08881482F80838981582F818386
:1008000012821382158260E070E080E090E00E9426
:100810007C00E0E2F1E06083718382839383A4E251
:10082000B1E08C918E7F82608C9388E08583158601
:10083000148681E0838788818430D9F4ECE0F1E08C
:1008400081E0848394E0492F908390910B01592F8C
:100850009183682F82831382158270E090E00E945A
:100860007C006093120170931301809314019093A4
:100870001501E6E1F1E080818E7F8260808388E06F
:10088000809317019FEF0F2EF0E2EF2EF1E0FF2E85
:10089000F02DCAE0D1E00F2EF6ECCF2EF1E0DF2EE6
:1008A000F02D01C0912FF7011285191719F0C7011A
:1008B0000E946C029881943009F052C00E940B088B
:1008C000882321F082E191E00E94CA0899819F313A
:1008D00069F49881943029F40E9452050E947405AD
:1008E000E1CF9330F9F60E947405DCCF8EE291E0FF
:1008F0000E94C0018823B1F260912E0170912F01F6
:1009000080913001909131010E94E3002093C60153
:100910003093C7014093C8015093C9016093CA0145
:100920007093CB0188814813BDCFF60193818981F3
:100930009813B8CF809134018F3F19F40C94007C48
:10094000B1CF433019F0443031F0ACCF8EE291E0BA
:100950000E94B309A7CF8EE291E00E942808A2CF9F
:1009600089818F3119F6BDCFE4E6F0E08081877F81
:10097000808380818F7E8083BD98BE98BF98E5E696
:10098000F0E080818861808388B3806E88BB83ECCF
:1009900099E00197F1F700C00000E3E6F0E0508134
:1009A000608136B396B370E06095709564FB222742
:1009B00020F9452F50E040955095487055275595A2
:1009C000479555954795240F432F50E040955095F6
:1009D0004072552755954795822F840F292F30E077
:1009E0002095309520743327359527953595279593
:1009F00035952795280F96B3892F90E0809590958F
:100A0000807899279595879595958795959587955C
:100A10009595879595958795820F80930B010895FD
:100A2000E1E6F0E080818D7F808380818E7F80830E
:100A3000D098E2E6F0E0808183608083D89A83ECEE
:100A400099E00197F1F700C0000080B180958370B4
:100A5000C89B02C090E001C094E0892B833039F03C
:100A6000843049F0823059F480930A01089583E07C
:100A700080930A01089584E080930A01089587E035
:100A800080930A0108950E940B08E4E4F1E028EC49
:100A900031E080E0908191118F5F3B96E217F30780
:100AA000C9F708959091CF0180910901981771F0CD
:100AB0000E944305813051F48091CF018093090158
:100AC00080FF02C0C49A0895C49808950E94430507
:100AD000823048F08091CD018093090180FF02C0EF
:100AE000C49A0895C49808959091D0018091080106
:100AF000981709F440C00E94430581113CC08091C1
:100B0000D0018093080180FF35C0C49A209107016D
:100B1000203138F5222391F030E021503109C9010C
:100B2000880F991F880F991F880F991F821B930B9D
:100B30008D529E4FFC0116820E94910980910701FF
:100B4000F7E08F9FC00111248D529E4F21E0FC01E0
:100B500026830E949109809107018F5F809307018E
:100B6000089510920701109242028CE392E00E94D5
:100B700091090895C4980895BF92CF92DF92EF92A1
:100B8000FF920F931F93CF93DF9350910A018DEF44
:100B9000850F823008F0D1C1E3EDF1E041E0408300
:100BA00073E0758325E330E03283218384E390E0B2
:100BB0009483838362E06783648731872087938788
:100BC00082877687438B308B2787928B818BA4E03B
:100BD000A58B128E378B268B918F808FB5E0B48FCB
:100BE00041A325E630E0368F258F84E690E090A380
:100BF000878FC6E0C3A310A635A324A397A386A31B
:100C000087E082A747A702E310E014A703A721E328
:100C100030E036A725A798E091AB16AA13AB02AB3C
:100C200035AB24AB99E090AF8093100223E230E023
:100C300032AF21AF82E290E094AF83AFEAE0E0937D
:100C40001202C09317023093140220931302909360
:100C5000160280931502EBE0E0931902B0931E0296
:100C600030931B0220931A0290931D0280931C0262
:100C7000ECE0E0932002A09325023093220220931F
:100C800021029093240280932302EDE0E093270257
:100C900070932C02309329022093280290932B0208
:100CA00080932A027EE070932E0260933302309389
:100CB000300220932F0290933202809331026FE032
:100CC0006093350240933A02309337022093360204
:100CD000909339028093380240E140933C02109295
:100CE000410230933E0220933D0290934002809354
:100CF0003F025330C9F4E8EDF1E048E452E021E06E
:100D000030E0DF0112970D90BC91A02DC901008049
:100D100002C0880F991F0A94E2F79C91892B8C934B
:100D20003796E417F50769F780910A01833009F4D3
:100D300004C18430C9F4E8EDF1E04CE252E021E076
:100D400030E0DF0112970D90BC91A02DC901008009
:100D500002C0880F991F0A94E2F79C91892B8C930B
:100D60003796E417F50769F7ECE3F1E0BB24B39499
:100D7000B0820F2EF7E0DF2EF02DD7824BE350E04C
:100D80005283418329E330E0348323838AE390E074
:100D9000968385836894EE24E1F8E386E28A65E62B
:100DA00070E07587648763E670E07787668764E63E
:100DB00070E0718B608B0F2EF3E0CF2EF02DC68A82
:100DC000D58EC5E3D0E0D08FC78BA3E3B0E0B28F60
:100DD000A18F64E370E0748F638F6894FF24F2F84E
:100DE000F1A216E010A7D3A3C2A3B5A3A4A377A32F
:100DF00066A305E004A703ABD6A7C5A7B0ABA7A71A
:100E000072AB61AB17ABF0927A01D1AFC0AFB3AFA9
:100E1000A2AF75AF64AFD0927E01B09285015093BE
:100E2000800140937F013093820120938101909350
:100E300084018093830168E060938901E0929001CE
:100E400050938B0140938A0130938D0120938C0144
:100E500090938F0180938E0169E060939401C0921A
:100E60009B015093960140939501309398012093F4
:100E7000970190939A01809399016AE060939F0192
:100E8000F092A6015093A1014093A0013093A301D9
:100E90002093A2019093A5018093A4016BE060933D
:100EA000AA010093B1015093AC014093AB01309380
:100EB000AE012093AD019093B0018093AF016CE03F
:100EC0006093B5011093BC015093B7014093B601F4
:100ED0003093B9012093B8019093BB018093BA017C
:100EE00080910A01843049F5E3E4F1E0ADE3B1E03B
:100EF00047EC51E021E030E01496CD91DC9115975C
:100F0000C901008002C0880F991F0A94E2F78095FA
:100F1000988189238883CD91DC911197C901008044
:100F200002C0880F991F0A94E2F79881892B888361
:100F30003B961B96E417F507F9F6BC9ADF91CF9123
:100F40001F910F91FF90EF90DF90CF90BF90089589
:100F500083E08EBD83B7876083BF8CE981BF12BEFB
:100F600087B7866087BF089578940895FC018681CD
:100F7000813071F4A181B28181E090E0058002C0EE
:100F8000880F991F0A94E2F79C91892B8C930895FE
:100F9000A181B28121E030E0C901058002C0880F43
:100FA000991F0A94E2F780959C9189238C93089568
:100FB000FC0181E090E0078002C0880F991F0A942D
:100FC000E2F7A381B4819C91892341F081E090856F
:100FD000913009F080E01086118608958085811196
:100FE00009C0118681E080878091CC018E5F828765
:100FF00081E001C080E092852091CC0192130AC06B
:101000009E5F92878185873020F48F5F818781E0A2
:10101000089581E00895EF92FF921F93CF93DF939D
:10102000CCE3D1E00F2EF0ECEF2EF1E0FF2EF02D0F
:1010300010E0CE010E94D807182B2B96CE15DF05A5
:10104000C1F7812FDF91CF911F91FF90EF9008950D
:10105000CF93DF93EC018D85882324F481E0809386
:10106000D90102C01092D90183ED91E00E94B60728
:101070008D8586FF04C081E08093E00102C010925C
:10108000E0018AED91E00E94B6078D8585FF04C0DE
:1010900081E08093E70102C01092E70181EE91E0C8
:1010A0000E94B6078D8584FF04C081E08093EE0125
:1010B00002C01092EE0188EE91E00E94B6078D8585
:1010C00083FF04C081E08093F50102C01092F50116
:1010D0008FEE91E00E94B6078D8582FF04C081E00B
:1010E0008093FC0102C01092FC0186EF91E00E9407
:1010F000B6078D8581FF04C081E08093030202C0A2
:10110000109203028DEF91E00E94B6078D8580FF5B
:1011100004C081E080930A0202C010920A0284E0B7
:1011200092E00E94B6078C85882324F481E08093A6
:10113000110202C0109211028BE092E00E94B607E9
:101140008C8586FF04C081E08093180202C0109253
:10115000180282E192E00E94B6078C8585FF04C0E8
:1011600081E080931F0202C010921F0289E192E089
:101170000E94B6078C8584FF04C081E0809326021C
:1011800002C01092260280E292E00E94B607DF9130
:10119000CF910895FC01DC0116960D961D92A817BB
:1011A000B907E1F7ACE3B1E018968C91189740E8E5
:1011B000849F9001112453969C91539740E4949FEF
:1011C000C0011124822B20919101822B5E963C91CB
:1011D0005E9790E2399FA0011124282F242B999625
:1011E0003C91999740E1349FC0011124822BD49601
:1011F0009C91D497990F990F990F292F282B8091A3
:101200007B01880F880F982F922B80918601880F81
:10121000892B85878091A70190E4899F90011124F3
:1012200090919C0140E8949FC0011124822B9091E1
:10123000B20140E2949F90011124282B9091BD01AE
:1012400030E1939FC0011124822B19969C9119972C
:10125000990F892B848754969C91549796959695CF
:10126000892B848754968C91549740E4849FC001C5
:1012700011249385892B83875F969C915F97990FA3
:10128000990F990F892B83879A969C919A97892B0E
:101290008387D5968C9120E2829FC001112492858C
:1012A000892B828790917C01990F990F892B8287D6
:1012B000A7E8B1E09C919695892B82878C9130E8C4
:1012C000839FC00111242185282B218790919201B1
:1012D00040E1949FC0011124822B818790919D0150
:1012E000990F892B8187A8EAB1E09C9196959695F4
:1012F000892B81878C9120E4829FC00111249085E5
:10130000892B80879091B301990F990F990F892BA1
:1013100080879091BE01892B8087CF010E946C024B
:101320000895FC018681813071F4A181B28181E050
:1013300090E0058002C0880F991F0A94E2F79C9103
:10134000892B8C930895A181B28121E030E0C901FD
:10135000058002C0880F991F0A94E2F780959C913E
:1013600089238C930895CF93DF93EC018D85882397
:1013700024F481E08093D90102C01092D90183ED59
:1013800091E00E9491098D8586FF04C081E08093E1
:10139000E00102C01092E0018AED91E00E94910903
:1013A0008D8585FF04C081E08093E70102C0109223
:1013B000E70181EE91E00E9491098D8584FF04C0D0
:1013C00081E08093EE0102C01092EE0188EE91E080
:1013D0000E9491098D8583FF04C081E08093F5010F
:1013E00002C01092F5018FEE91E00E9491098D8567
:1013F00082FF04C081E08093FC0102C01092FC01D6
:1014000086EF91E00E9491098D8581FF04C081E003
:101410008093030202C0109203028DEF91E00E94BC
:1014200091098D8580FF04C081E080930A0202C08B
:1014300010920A0284E092E00E9491098C85882330
:1014400024F481E08093110202C0109211028BE01B
:1014500092E00E9491098C8586FF04C081E0809310
:10146000180202C01092180282E192E00E949109D3
:101470008C8585FF04C081E080931F0202C010921A
:101480001F0289E192E00E9491098C8584FF04C0CB
:1014900081E08093260202C01092260280E292E050
:1014A0000E9491098C8583FF04C081E080932D0206
:1014B00002C010922D0287E292E00E9491098C8571
:1014C00082FF04C081E08093340202C01092340293
:1014D0008EE292E00E9491098C8581FF04C081E038
:1014E00080933B0202C010923B0285E392E00E948F
:1014F00091098C8580FF04C081E08093420202C084
:10150000109242028CE392E00E949109DF91CF9108
:061510000895F894FFCFDE
:00000001FF
